{
    "_format": "hh-sol-artifact-1",
    "contractName": "Factory",
    "sourceName": "contracts/Factory.sol",
    "abi": [
        {
            "inputs": [],
            "stateMutability": "nonpayable",
            "type": "constructor"
        },
        {
            "inputs": [],
            "name": "Fillion__AlreadyAnArtist",
            "type": "error"
        },
        {
            "inputs": [],
            "name": "Fillion__OnlyArtists",
            "type": "error"
        },
        {
            "anonymous": false,
            "inputs": [
                {
                    "indexed": false,
                    "internalType": "uint256",
                    "name": "id",
                    "type": "uint256"
                },
                {
                    "indexed": false,
                    "internalType": "uint256",
                    "name": "dateJoined",
                    "type": "uint256"
                },
                {
                    "indexed": false,
                    "internalType": "address",
                    "name": "artistAddress",
                    "type": "address"
                },
                {
                    "indexed": false,
                    "internalType": "string",
                    "name": "artistDetails",
                    "type": "string"
                }
            ],
            "name": "newArtistJoined",
            "type": "event"
        },
        {
            "inputs": [
                {
                    "internalType": "uint256",
                    "name": "",
                    "type": "uint256"
                }
            ],
            "name": "addressById",
            "outputs": [
                {
                    "internalType": "address",
                    "name": "",
                    "type": "address"
                }
            ],
            "stateMutability": "view",
            "type": "function"
        },
        {
            "inputs": [
                {
                    "internalType": "address",
                    "name": "",
                    "type": "address"
                }
            ],
            "name": "artistByAddress",
            "outputs": [
                {
                    "internalType": "uint256",
                    "name": "id",
                    "type": "uint256"
                },
                {
                    "internalType": "uint256",
                    "name": "dateJoined",
                    "type": "uint256"
                },
                {
                    "internalType": "address",
                    "name": "artistAddress",
                    "type": "address"
                },
                {
                    "internalType": "string",
                    "name": "artistDetails",
                    "type": "string"
                }
            ],
            "stateMutability": "view",
            "type": "function"
        },
        {
            "inputs": [],
            "name": "artistCount",
            "outputs": [
                {
                    "internalType": "uint256",
                    "name": "",
                    "type": "uint256"
                }
            ],
            "stateMutability": "view",
            "type": "function"
        },
        {
            "inputs": [
                {
                    "internalType": "uint256",
                    "name": "",
                    "type": "uint256"
                }
            ],
            "name": "artists",
            "outputs": [
                {
                    "internalType": "uint256",
                    "name": "id",
                    "type": "uint256"
                },
                {
                    "internalType": "uint256",
                    "name": "dateJoined",
                    "type": "uint256"
                },
                {
                    "internalType": "address",
                    "name": "artistAddress",
                    "type": "address"
                },
                {
                    "internalType": "string",
                    "name": "artistDetails",
                    "type": "string"
                }
            ],
            "stateMutability": "view",
            "type": "function"
        },
        {
            "inputs": [
                {
                    "internalType": "uint256",
                    "name": "",
                    "type": "uint256"
                }
            ],
            "name": "collections",
            "outputs": [
                {
                    "internalType": "contract Collection",
                    "name": "",
                    "type": "address"
                }
            ],
            "stateMutability": "view",
            "type": "function"
        },
        {
            "inputs": [
                {
                    "internalType": "address",
                    "name": "",
                    "type": "address"
                },
                {
                    "internalType": "uint256",
                    "name": "",
                    "type": "uint256"
                }
            ],
            "name": "collectionsByCreator",
            "outputs": [
                {
                    "internalType": "address",
                    "name": "",
                    "type": "address"
                }
            ],
            "stateMutability": "view",
            "type": "function"
        },
        {
            "inputs": [
                {
                    "internalType": "string",
                    "name": "_collectionName",
                    "type": "string"
                },
                {
                    "internalType": "string",
                    "name": "_uri",
                    "type": "string"
                },
                {
                    "internalType": "string[]",
                    "name": "_contents",
                    "type": "string[]"
                }
            ],
            "name": "createCollection",
            "outputs": [
                {
                    "internalType": "address",
                    "name": "",
                    "type": "address"
                }
            ],
            "stateMutability": "nonpayable",
            "type": "function"
        },
        {
            "inputs": [],
            "name": "getAllArtists",
            "outputs": [
                {
                    "components": [
                        {
                            "internalType": "uint256",
                            "name": "id",
                            "type": "uint256"
                        },
                        {
                            "internalType": "uint256",
                            "name": "dateJoined",
                            "type": "uint256"
                        },
                        {
                            "internalType": "address",
                            "name": "artistAddress",
                            "type": "address"
                        },
                        {
                            "internalType": "string",
                            "name": "artistDetails",
                            "type": "string"
                        }
                    ],
                    "internalType": "struct FillionArtist.Artist[]",
                    "name": "",
                    "type": "tuple[]"
                }
            ],
            "stateMutability": "view",
            "type": "function"
        },
        {
            "inputs": [],
            "name": "getAllCollections",
            "outputs": [
                {
                    "internalType": "contract Collection[]",
                    "name": "",
                    "type": "address[]"
                }
            ],
            "stateMutability": "view",
            "type": "function"
        },
        {
            "inputs": [
                {
                    "internalType": "uint256",
                    "name": "_id",
                    "type": "uint256"
                }
            ],
            "name": "getCollectionById",
            "outputs": [
                {
                    "internalType": "address",
                    "name": "",
                    "type": "address"
                }
            ],
            "stateMutability": "view",
            "type": "function"
        },
        {
            "inputs": [
                {
                    "internalType": "address",
                    "name": "_creator",
                    "type": "address"
                }
            ],
            "name": "getCollectionsByCreator",
            "outputs": [
                {
                    "internalType": "address[]",
                    "name": "",
                    "type": "address[]"
                }
            ],
            "stateMutability": "view",
            "type": "function"
        },
        {
            "inputs": [
                {
                    "internalType": "address",
                    "name": "",
                    "type": "address"
                }
            ],
            "name": "isArtist",
            "outputs": [
                {
                    "internalType": "bool",
                    "name": "",
                    "type": "bool"
                }
            ],
            "stateMutability": "view",
            "type": "function"
        },
        {
            "inputs": [
                {
                    "internalType": "string",
                    "name": "_artistDetails",
                    "type": "string"
                }
            ],
            "name": "newArtistSignup",
            "outputs": [],
            "stateMutability": "nonpayable",
            "type": "function"
        },
        {
            "inputs": [
                {
                    "internalType": "address",
                    "name": "_marketPlace",
                    "type": "address"
                }
            ],
            "name": "setMarketPlace",
            "outputs": [],
            "stateMutability": "nonpayable",
            "type": "function"
        },
        {
            "inputs": [
                {
                    "internalType": "string",
                    "name": "_artistDetails",
                    "type": "string"
                },
                {
                    "internalType": "uint256",
                    "name": "_artistid",
                    "type": "uint256"
                }
            ],
            "name": "updateArtistDetails",
            "outputs": [],
            "stateMutability": "nonpayable",
            "type": "function"
        }
    ],
    "bytecode": "0x60806040526000805534801561001457600080fd5b50600880546001600160a01b03191633179055613a27806100366000396000f3fe60806040523480156200001157600080fd5b5060043610620001095760003560e01c8063be53048211620000a3578063e547cb85116200006e578063e547cb85146200027a578063f56b83691462000291578063f803ace314620002a8578063fdbda0ec14620002c157600080fd5b8063be530482146200021c578063cd7e10c11462000235578063dcbf58bf146200024c578063e2f82ba6146200026357600080fd5b80636b2f65b011620000e45780636b2f65b014620001605780637c3dc67214620001975780638162c17b14620001c757806387d3a02414620001f057600080fd5b806330568a8d146200010e5780635508c69714620001275780636804a958146200013e575b600080fd5b620001256200011f36600462000adf565b620002d8565b005b620001256200013836600462000bc5565b62000312565b620001486200054c565b60405162000157919062000c06565b60405180910390f35b620001866200017136600462000adf565b60026020526000908152604090205460ff1681565b604051901515815260200162000157565b620001ae620001a836600462000c55565b620005b0565b6040516001600160a01b03909116815260200162000157565b620001de620001d836600462000adf565b620005e9565b60405162000157949392919062000cca565b620001ae6200020136600462000d03565b6004602052600090815260409020546001600160a01b031681565b6200022660005481565b60405190815260200162000157565b620001de6200024636600462000d03565b620006af565b620001256200025d36600462000d1d565b62000701565b620001ae6200027436600462000d66565b620007b1565b620001ae6200028b36600462000d03565b620008b8565b62000148620002a236600462000adf565b620008eb565b620002b262000963565b60405162000157919062000e84565b620001ae620002d236600462000d03565b62000a89565b6008546001600160a01b03163314620002f057600080fd5b600780546001600160a01b0319166001600160a01b0392909216919091179055565b3360009081526002602052604090205460ff161515600103620003485760405163164cc74d60e31b815260040160405180910390fd5b60008151116200035757600080fd5b600080549080620003688362000f1c565b909155505060408051608081018252600080548252426020808401918252338486018181526060860188815291855260029092529483208054600160ff19909116811790915560058054918201815590935283517f036b6384b5eca791c62761152d0c79bb0604c104a5fb6f4eb0703f3154bb3db0600490940293840190815591517f036b6384b5eca791c62761152d0c79bb0604c104a5fb6f4eb0703f3154bb3db1840155517f036b6384b5eca791c62761152d0c79bb0604c104a5fb6f4eb0703f3154bb3db2830180546001600160a01b0319166001600160a01b0390921691909117905592519192839290917f036b6384b5eca791c62761152d0c79bb0604c104a5fb6f4eb0703f3154bb3db3019062000486908262000fd3565b50503360009081526003602081815260409283902085518155908501516001820155918401516002830180546001600160a01b0319166001600160a01b03909216919091179055606084015184935090820190620004e5908262000fd3565b50506000805481526004602052604080822080546001600160a01b03191633908117909155915490517f084e9726d8621cec5b0cc5189b3ae44b6ad7a59c579f918937e546356fbb8442935062000540924291879062000cca565b60405180910390a15050565b60606006805480602002602001604051908101604052809291908181526020018280548015620005a657602002820191906000526020600020905b81546001600160a01b0316815260019091019060200180831162000587575b5050505050905090565b60096020528160005260406000208181548110620005cd57600080fd5b6000918252602090912001546001600160a01b03169150829050565b60036020819052600091825260409091208054600182015460028301549383018054929491936001600160a01b0390921692620006269062000f44565b80601f0160208091040260200160405190810160405280929190818152602001828054620006549062000f44565b8015620006a55780601f106200067957610100808354040283529160200191620006a5565b820191906000526020600020905b8154815290600101906020018083116200068757829003601f168201915b5050505050905084565b60058181548110620006c057600080fd5b6000918252602090912060049091020180546001820154600283015460038401805493955091936001600160a01b0390911692909190620006269062000f44565b3360009081526002602052604081205460ff16151590036200073657604051635c20ea7760e01b815260040160405180910390fd5b6000818152600460205260409020546001600160a01b031633146200075a57600080fd5b3360009081526003602081905260409091200162000779838262000fd3565b507f084e9726d8621cec5b0cc5189b3ae44b6ad7a59c579f918937e546356fbb84428142338560405162000540949392919062000cca565b3360009081526002602052604081205460ff1615158103620007e657604051635c20ea7760e01b815260040160405180910390fd5b6000848484600760009054906101000a90046001600160a01b03166040516200080f9062000ab4565b6200081e9493929190620010a0565b604051809103906000f0801580156200083b573d6000803e3d6000fd5b506006805460018181019092557ff652222313e28459528d920b65115c16c04f3efc82aaedc97be59f3f377c0d3f0180546001600160a01b0384166001600160a01b031991821681179092553360009081526009602090815260408220805495860181558252902090920180549092161790559150509392505050565b600060068281548110620008d057620008d062001144565b6000918252602090912001546001600160a01b031692915050565b6001600160a01b0381166000908152600960209081526040918290208054835181840281018401909452808452606093928301828280156200095757602002820191906000526020600020905b81546001600160a01b0316815260019091019060200180831162000938575b50505050509050919050565b60606005805480602002602001604051908101604052809291908181526020016000905b8282101562000a8057600084815260209081902060408051608081018252600486029092018054835260018101549383019390935260028301546001600160a01b031690820152600382018054919291606084019190620009e89062000f44565b80601f016020809104026020016040519081016040528092919081815260200182805462000a169062000f44565b801562000a675780601f1062000a3b5761010080835404028352916020019162000a67565b820191906000526020600020905b81548152906001019060200180831162000a4957829003601f168201915b5050505050815250508152602001906001019062000987565b50505050905090565b6006818154811062000a9a57600080fd5b6000918252602090912001546001600160a01b0316905081565b612897806200115b83390190565b80356001600160a01b038116811462000ada57600080fd5b919050565b60006020828403121562000af257600080fd5b62000afd8262000ac2565b9392505050565b634e487b7160e01b600052604160045260246000fd5b604051601f8201601f1916810167ffffffffffffffff8111828210171562000b465762000b4662000b04565b604052919050565b600082601f83011262000b6057600080fd5b813567ffffffffffffffff81111562000b7d5762000b7d62000b04565b62000b92601f8201601f191660200162000b1a565b81815284602083860101111562000ba857600080fd5b816020850160208301376000918101602001919091529392505050565b60006020828403121562000bd857600080fd5b813567ffffffffffffffff81111562000bf057600080fd5b62000bfe8482850162000b4e565b949350505050565b6020808252825182820181905260009190848201906040850190845b8181101562000c495783516001600160a01b03168352928401929184019160010162000c22565b50909695505050505050565b6000806040838503121562000c6957600080fd5b62000c748362000ac2565b946020939093013593505050565b6000815180845260005b8181101562000caa5760208185018101518683018201520162000c8c565b506000602082860101526020601f19601f83011685010191505092915050565b84815283602082015260018060a01b038316604082015260806060820152600062000cf9608083018462000c82565b9695505050505050565b60006020828403121562000d1657600080fd5b5035919050565b6000806040838503121562000d3157600080fd5b823567ffffffffffffffff81111562000d4957600080fd5b62000d578582860162000b4e565b95602094909401359450505050565b60008060006060848603121562000d7c57600080fd5b833567ffffffffffffffff8082111562000d9557600080fd5b62000da38783880162000b4e565b945060209150818601358181111562000dbb57600080fd5b62000dc98882890162000b4e565b94505060408601358181111562000ddf57600080fd5b8601601f8101881362000df157600080fd5b80358281111562000e065762000e0662000b04565b8060051b62000e1785820162000b1a565b918252828101850191858101908b84111562000e3257600080fd5b86850192505b8383101562000e735782358681111562000e525760008081fd5b62000e628d898389010162000b4e565b835250918601919086019062000e38565b809750505050505050509250925092565b60006020808301818452808551808352604092508286019150828160051b87010184880160005b8381101562000f0e57888303603f190185528151805184528781015188850152868101516001600160a01b03168785015260609081015160809185018290529062000ef98186018362000c82565b96890196945050509086019060010162000eab565b509098975050505050505050565b60006001820162000f3d57634e487b7160e01b600052601160045260246000fd5b5060010190565b600181811c9082168062000f5957607f821691505b60208210810362000f7a57634e487b7160e01b600052602260045260246000fd5b50919050565b601f82111562000fce57600081815260208120601f850160051c8101602086101562000fa95750805b601f850160051c820191505b8181101562000fca5782815560010162000fb5565b5050505b505050565b815167ffffffffffffffff81111562000ff05762000ff062000b04565b620010088162001001845462000f44565b8462000f80565b602080601f831160018114620010405760008415620010275750858301515b600019600386901b1c1916600185901b17855562000fca565b600085815260208120601f198616915b82811015620010715788860151825594840194600190910190840162001050565b5085821015620010905787850151600019600388901b60f8161c191681555b5050505050600190811b01905550565b608081526000620010b5608083018762000c82565b602083820381850152620010ca828862000c82565b915083820360408501528186518084528284019150828160051b85010183890160005b838110156200111f57601f198784030185526200110c83835162000c82565b94860194925090850190600101620010ed565b50506001600160a01b0397909716606096909601959095525093979650505050505050565b634e487b7160e01b600052603260045260246000fdfe60806040523480156200001157600080fd5b5060405162002897380380620028978339810160408190526200003491620003db565b826200004081620000c0565b506200004c33620000d2565b60056200005a85826200059a565b5060066200006984826200059a565b5081516200007f9060079060208501906200021a565b506200008b8362000124565b62000096326200013c565b600880546001600160a01b0319166001600160a01b03929092169190911790555062000666915050565b6002620000ce82826200059a565b5050565b600380546001600160a01b038381166001600160a01b0319831681179093556040519116919082907f8be0079c531659141344cd1fd0a4f28419497f9722a3daafe3b4186f6b6457e090600090a35050565b6200012e620001bc565b6200013981620000c0565b50565b62000146620001bc565b6001600160a01b038116620001b15760405162461bcd60e51b815260206004820152602660248201527f4f776e61626c653a206e6577206f776e657220697320746865207a65726f206160448201526564647265737360d01b60648201526084015b60405180910390fd5b6200013981620000d2565b6003546001600160a01b03163314620002185760405162461bcd60e51b815260206004820181905260248201527f4f776e61626c653a2063616c6c6572206973206e6f7420746865206f776e65726044820152606401620001a8565b565b82805482825590600052602060002090810192821562000265579160200282015b828111156200026557825182906200025490826200059a565b50916020019190600101906200023b565b506200027392915062000277565b5090565b80821115620002735760006200028e828262000298565b5060010162000277565b508054620002a6906200050b565b6000825580601f10620002b7575050565b601f0160209004906000526020600020908101906200013991905b80821115620002735760008155600101620002d2565b634e487b7160e01b600052604160045260246000fd5b604051601f8201601f191681016001600160401b0381118282101715620003295762000329620002e8565b604052919050565b600082601f8301126200034357600080fd5b81516001600160401b038111156200035f576200035f620002e8565b602062000375601f8301601f19168201620002fe565b82815285828487010111156200038a57600080fd5b60005b83811015620003aa5785810183015182820184015282016200038d565b506000928101909101919091529392505050565b80516001600160a01b0381168114620003d657600080fd5b919050565b60008060008060808587031215620003f257600080fd5b84516001600160401b03808211156200040a57600080fd5b620004188883890162000331565b95506020915081870151818111156200043057600080fd5b6200043e89828a0162000331565b9550506040870151818111156200045457600080fd5b8701601f810189136200046657600080fd5b8051828111156200047b576200047b620002e8565b8060051b6200048c858201620002fe565b918252828101850191858101908c841115620004a757600080fd5b86850192505b83831015620004e857825186811115620004c75760008081fd5b620004d78e898389010162000331565b8352509186019190860190620004ad565b809850505050505050506200050060608601620003be565b905092959194509250565b600181811c908216806200052057607f821691505b6020821081036200054157634e487b7160e01b600052602260045260246000fd5b50919050565b601f8211156200059557600081815260208120601f850160051c81016020861015620005705750805b601f850160051c820191505b8181101562000591578281556001016200057c565b5050505b505050565b81516001600160401b03811115620005b657620005b6620002e8565b620005ce81620005c784546200050b565b8462000547565b602080601f831160018114620006065760008415620005ed5750858301515b600019600386901b1c1916600185901b17855562000591565b600085815260208120601f198616915b82811015620006375788860151825594840194600190910190840162000616565b5085821015620006565787850151600019600388901b60f8161c191681555b5050505050600190811b01905550565b61222180620006766000396000f3fe608060405234801561001057600080fd5b506004361061012b5760003560e01c80634e1273f4116100ad578063b5ecf91211610071578063b5ecf9121461028e578063e5326ab1146102a1578063e985e9c5146102a9578063f242432a146102e5578063f2fde38b146102f857600080fd5b80634e1273f41461023a5780635b2bd79e1461025a578063715018a6146102625780638da5cb5b1461026a578063a22cb4651461027b57600080fd5b8063156e29f6116100f4578063156e29f6146101c15780631f7fdffa146101d457806323677ae2146101e75780632eb2c2d6146101fc57806337eacbe71461020f57600080fd5b8062fdd58e1461013057806301ffc9a71461015657806302fe5305146101795780630e89341c1461018e57806312b468b2146101ae575b600080fd5b61014361013e3660046115d4565b61030b565b6040519081526020015b60405180910390f35b610169610164366004611614565b6103a4565b604051901515815260200161014d565b61018c6101873660046116d9565b6103f4565b005b6101a161019c36600461172a565b610408565b60405161014d9190611793565b6101a16101bc36600461172a565b610467565b6101436101cf3660046117a6565b610523565b61018c6101e236600461188e565b6105fb565b6101ef610776565b60405161014d9190611927565b61018c61020a366004611989565b61084f565b600454610222906001600160a01b031681565b6040516001600160a01b03909116815260200161014d565b61024d610248366004611a33565b61089b565b60405161014d9190611b39565b6101a16109c5565b61018c610a53565b6003546001600160a01b0316610222565b61018c610289366004611b4c565b610a67565b6101a161029c36600461172a565b610a76565b6101a1610aa1565b6101696102b7366004611b88565b6001600160a01b03918216600090815260016020908152604080832093909416825291909152205460ff1690565b61018c6102f3366004611bbb565b610aae565b61018c610306366004611c20565b610af3565b60006001600160a01b03831661037b5760405162461bcd60e51b815260206004820152602a60248201527f455243313135353a2061646472657373207a65726f206973206e6f742061207660448201526930b634b21037bbb732b960b11b60648201526084015b60405180910390fd5b506000818152602081815260408083206001600160a01b03861684529091529020545b92915050565b60006001600160e01b03198216636cdb3d1360e11b14806103d557506001600160e01b031982166303a24d0760e21b145b8061039e57506301ffc9a760e01b6001600160e01b031983161461039e565b6103fc610b69565b61040581610bc3565b50565b6060811580610418575060075482115b156104355760405162461bcd60e51b815260040161037290611c3b565b600661044083610bcf565b604051602001610451929190611c98565b6040516020818303038152906040529050919050565b60608161047381611d45565b9250506007828154811061048957610489611d5c565b90600052602060002001805461049e90611c5e565b80601f01602080910402602001604051908101604052809291908181526020018280546104ca90611c5e565b80156105175780601f106104ec57610100808354040283529160200191610517565b820191906000526020600020905b8154815290600101906020018083116104fa57829003601f168201915b50505050509050919050565b600061052d610b69565b82158061053b575060075483115b156105585760405162461bcd60e51b815260040161037290611c3b565b600854600480546001600160a01b0319166001600160a01b039283169081178255604051631f98761d60e31b8152309281019290925260248201869052918616604482015263fcc3b0e890606401600060405180830381600087803b1580156105c057600080fd5b505af11580156105d4573d6000803e3d6000fd5b505050506105f384848460405180602001604052806000815250610c62565b509092915050565b610603610b69565b60005b83518110156106825783818151811061062157610621611d5c565b6020026020010151600014806106535750600754845185908390811061064957610649611d5c565b6020026020010151115b156106705760405162461bcd60e51b815260040161037290611c3b565b8061067a81611d72565b915050610606565b50600854600480546001600160a01b0319166001600160a01b0390921691909117905560005b83518110156107635760045484516001600160a01b039091169063fcc3b0e89030908790859081106106dc576106dc611d5c565b60209081029190910101516040516001600160e01b031960e085901b1681526001600160a01b03928316600482015260248101919091529088166044820152606401600060405180830381600087803b15801561073857600080fd5b505af115801561074c573d6000803e3d6000fd5b50505050808061075b90611d72565b9150506106a8565b5061077084848484610d3c565b50505050565b60606007805480602002602001604051908101604052809291908181526020016000905b828210156108465783829060005260206000200180546107b990611c5e565b80601f01602080910402602001604051908101604052809291908181526020018280546107e590611c5e565b80156108325780601f1061080757610100808354040283529160200191610832565b820191906000526020600020905b81548152906001019060200180831161081557829003601f168201915b50505050508152602001906001019061079a565b50505050905090565b6001600160a01b03851633148061086b575061086b85336102b7565b6108875760405162461bcd60e51b815260040161037290611d8b565b6108948585858585610e87565b5050505050565b606081518351146109005760405162461bcd60e51b815260206004820152602960248201527f455243313135353a206163636f756e747320616e6420696473206c656e677468604482015268040dad2e6dac2e8c6d60bb1b6064820152608401610372565b6000835167ffffffffffffffff81111561091c5761091c611638565b604051908082528060200260200182016040528015610945578160200160208202803683370190505b50905060005b84518110156109bd5761099085828151811061096957610969611d5c565b602002602001015185838151811061098357610983611d5c565b602002602001015161030b565b8282815181106109a2576109a2611d5c565b60209081029190910101526109b681611d72565b905061094b565b509392505050565b600680546109d290611c5e565b80601f01602080910402602001604051908101604052809291908181526020018280546109fe90611c5e565b8015610a4b5780601f10610a2057610100808354040283529160200191610a4b565b820191906000526020600020905b815481529060010190602001808311610a2e57829003601f168201915b505050505081565b610a5b610b69565b610a656000611023565b565b610a72338383611075565b5050565b60078181548110610a8657600080fd5b9060005260206000200160009150905080546109d290611c5e565b600580546109d290611c5e565b6001600160a01b038516331480610aca5750610aca85336102b7565b610ae65760405162461bcd60e51b815260040161037290611d8b565b6108948585858585611155565b610afb610b69565b6001600160a01b038116610b605760405162461bcd60e51b815260206004820152602660248201527f4f776e61626c653a206e6577206f776e657220697320746865207a65726f206160448201526564647265737360d01b6064820152608401610372565b61040581611023565b6003546001600160a01b03163314610a655760405162461bcd60e51b815260206004820181905260248201527f4f776e61626c653a2063616c6c6572206973206e6f7420746865206f776e65726044820152606401610372565b6002610a728282611e24565b60606000610bdc8361127f565b600101905060008167ffffffffffffffff811115610bfc57610bfc611638565b6040519080825280601f01601f191660200182016040528015610c26576020820181803683370190505b5090508181016020015b600019016f181899199a1a9b1b9c1cb0b131b232b360811b600a86061a8153600a8504945084610c3057509392505050565b6001600160a01b038416610c885760405162461bcd60e51b815260040161037290611ee4565b336000610c9485611357565b90506000610ca185611357565b90506000868152602081815260408083206001600160a01b038b16845290915281208054879290610cd3908490611f25565b909155505060408051878152602081018790526001600160a01b03808a1692600092918716917fc3d58168c5ae7397731d063d5bbf3d657854427343f4c083240f7aacaa2d0f62910160405180910390a4610d33836000898989896113a2565b50505050505050565b6001600160a01b038416610d625760405162461bcd60e51b815260040161037290611ee4565b8151835114610d835760405162461bcd60e51b815260040161037290611f38565b3360005b8451811015610e1f57838181518110610da257610da2611d5c565b6020026020010151600080878481518110610dbf57610dbf611d5c565b602002602001015181526020019081526020016000206000886001600160a01b03166001600160a01b031681526020019081526020016000206000828254610e079190611f25565b90915550819050610e1781611d72565b915050610d87565b50846001600160a01b031660006001600160a01b0316826001600160a01b03167f4a39dc06d4c0dbc64b70af90fd698a233a518aa5d07e595d983b8c0526c8f7fb8787604051610e70929190611f80565b60405180910390a4610894816000878787876114fd565b8151835114610ea85760405162461bcd60e51b815260040161037290611f38565b6001600160a01b038416610ece5760405162461bcd60e51b815260040161037290611fae565b3360005b8451811015610fb5576000858281518110610eef57610eef611d5c565b602002602001015190506000858381518110610f0d57610f0d611d5c565b602090810291909101810151600084815280835260408082206001600160a01b038e168352909352919091205490915081811015610f5d5760405162461bcd60e51b815260040161037290611ff3565b6000838152602081815260408083206001600160a01b038e8116855292528083208585039055908b16825281208054849290610f9a908490611f25565b9250508190555050505080610fae90611d72565b9050610ed2565b50846001600160a01b0316866001600160a01b0316826001600160a01b03167f4a39dc06d4c0dbc64b70af90fd698a233a518aa5d07e595d983b8c0526c8f7fb8787604051611005929190611f80565b60405180910390a461101b8187878787876114fd565b505050505050565b600380546001600160a01b038381166001600160a01b0319831681179093556040519116919082907f8be0079c531659141344cd1fd0a4f28419497f9722a3daafe3b4186f6b6457e090600090a35050565b816001600160a01b0316836001600160a01b0316036110e85760405162461bcd60e51b815260206004820152602960248201527f455243313135353a2073657474696e6720617070726f76616c20737461747573604482015268103337b91039b2b63360b91b6064820152608401610372565b6001600160a01b03838116600081815260016020908152604080832094871680845294825291829020805460ff191686151590811790915591519182527f17307eab39ab6107e8899845ad3d59bd9653f200f220920489ca2b5937696c31910160405180910390a3505050565b6001600160a01b03841661117b5760405162461bcd60e51b815260040161037290611fae565b33600061118785611357565b9050600061119485611357565b90506000868152602081815260408083206001600160a01b038c168452909152902054858110156111d75760405162461bcd60e51b815260040161037290611ff3565b6000878152602081815260408083206001600160a01b038d8116855292528083208985039055908a16825281208054889290611214908490611f25565b909155505060408051888152602081018890526001600160a01b03808b16928c821692918816917fc3d58168c5ae7397731d063d5bbf3d657854427343f4c083240f7aacaa2d0f62910160405180910390a4611274848a8a8a8a8a6113a2565b505050505050505050565b60008072184f03e93ff9f4daa797ed6e38ed64bf6a1f0160401b83106112be5772184f03e93ff9f4daa797ed6e38ed64bf6a1f0160401b830492506040015b6d04ee2d6d415b85acef810000000083106112ea576d04ee2d6d415b85acef8100000000830492506020015b662386f26fc10000831061130857662386f26fc10000830492506010015b6305f5e1008310611320576305f5e100830492506008015b612710831061133457612710830492506004015b60648310611346576064830492506002015b600a831061039e5760010192915050565b6040805160018082528183019092526060916000919060208083019080368337019050509050828160008151811061139157611391611d5c565b602090810291909101015292915050565b6001600160a01b0384163b1561101b5760405163f23a6e6160e01b81526001600160a01b0385169063f23a6e61906113e6908990899088908890889060040161203d565b6020604051808303816000875af1925050508015611421575060408051601f3d908101601f1916820190925261141e91810190612082565b60015b6114cd5761142d61209f565b806308c379a00361146657506114416120bb565b8061144c5750611468565b8060405162461bcd60e51b81526004016103729190611793565b505b60405162461bcd60e51b815260206004820152603460248201527f455243313135353a207472616e7366657220746f206e6f6e2d455243313135356044820152732932b1b2b4bb32b91034b6b83632b6b2b73a32b960611b6064820152608401610372565b6001600160e01b0319811663f23a6e6160e01b14610d335760405162461bcd60e51b815260040161037290612145565b6001600160a01b0384163b1561101b5760405163bc197c8160e01b81526001600160a01b0385169063bc197c8190611541908990899088908890889060040161218d565b6020604051808303816000875af192505050801561157c575060408051601f3d908101601f1916820190925261157991810190612082565b60015b6115885761142d61209f565b6001600160e01b0319811663bc197c8160e01b14610d335760405162461bcd60e51b815260040161037290612145565b80356001600160a01b03811681146115cf57600080fd5b919050565b600080604083850312156115e757600080fd5b6115f0836115b8565b946020939093013593505050565b6001600160e01b03198116811461040557600080fd5b60006020828403121561162657600080fd5b8135611631816115fe565b9392505050565b634e487b7160e01b600052604160045260246000fd5b601f8201601f1916810167ffffffffffffffff8111828210171561167457611674611638565b6040525050565b600067ffffffffffffffff83111561169557611695611638565b6040516116ac601f8501601f19166020018261164e565b8091508381528484840111156116c157600080fd5b83836020830137600060208583010152509392505050565b6000602082840312156116eb57600080fd5b813567ffffffffffffffff81111561170257600080fd5b8201601f8101841361171357600080fd5b6117228482356020840161167b565b949350505050565b60006020828403121561173c57600080fd5b5035919050565b60005b8381101561175e578181015183820152602001611746565b50506000910152565b6000815180845261177f816020860160208601611743565b601f01601f19169290920160200192915050565b6020815260006116316020830184611767565b6000806000606084860312156117bb57600080fd5b6117c4846115b8565b95602085013595506040909401359392505050565b600067ffffffffffffffff8211156117f3576117f3611638565b5060051b60200190565b600082601f83011261180e57600080fd5b8135602061181b826117d9565b604051611828828261164e565b83815260059390931b850182019282810191508684111561184857600080fd5b8286015b84811015611863578035835291830191830161184c565b509695505050505050565b600082601f83011261187f57600080fd5b6116318383356020850161167b565b600080600080608085870312156118a457600080fd5b6118ad856115b8565b9350602085013567ffffffffffffffff808211156118ca57600080fd5b6118d6888389016117fd565b945060408701359150808211156118ec57600080fd5b6118f8888389016117fd565b9350606087013591508082111561190e57600080fd5b5061191b8782880161186e565b91505092959194509250565b6000602080830181845280855180835260408601915060408160051b870101925083870160005b8281101561197c57603f1988860301845261196a858351611767565b9450928501929085019060010161194e565b5092979650505050505050565b600080600080600060a086880312156119a157600080fd5b6119aa866115b8565b94506119b8602087016115b8565b9350604086013567ffffffffffffffff808211156119d557600080fd5b6119e189838a016117fd565b945060608801359150808211156119f757600080fd5b611a0389838a016117fd565b93506080880135915080821115611a1957600080fd5b50611a268882890161186e565b9150509295509295909350565b60008060408385031215611a4657600080fd5b823567ffffffffffffffff80821115611a5e57600080fd5b818501915085601f830112611a7257600080fd5b81356020611a7f826117d9565b604051611a8c828261164e565b83815260059390931b8501820192828101915089841115611aac57600080fd5b948201945b83861015611ad157611ac2866115b8565b82529482019490820190611ab1565b96505086013592505080821115611ae757600080fd5b50611af4858286016117fd565b9150509250929050565b600081518084526020808501945080840160005b83811015611b2e57815187529582019590820190600101611b12565b509495945050505050565b6020815260006116316020830184611afe565b60008060408385031215611b5f57600080fd5b611b68836115b8565b915060208301358015158114611b7d57600080fd5b809150509250929050565b60008060408385031215611b9b57600080fd5b611ba4836115b8565b9150611bb2602084016115b8565b90509250929050565b600080600080600060a08688031215611bd357600080fd5b611bdc866115b8565b9450611bea602087016115b8565b93506040860135925060608601359150608086013567ffffffffffffffff811115611c1457600080fd5b611a268882890161186e565b600060208284031215611c3257600080fd5b611631826115b8565b602080825260099082015268139bdd08185b88125960ba1b604082015260600190565b600181811c90821680611c7257607f821691505b602082108103611c9257634e487b7160e01b600052602260045260246000fd5b50919050565b6000808454611ca681611c5e565b60018281168015611cbe5760018114611cd357611d02565b60ff1984168752821515830287019450611d02565b8860005260208060002060005b85811015611cf95781548a820152908401908201611ce0565b50505082870194505b505050508351611d16818360208801611743565b64173539b7b760d91b9101908152600501949350505050565b634e487b7160e01b600052601160045260246000fd5b600081611d5457611d54611d2f565b506000190190565b634e487b7160e01b600052603260045260246000fd5b600060018201611d8457611d84611d2f565b5060010190565b6020808252602e908201527f455243313135353a2063616c6c6572206973206e6f7420746f6b656e206f776e60408201526d195c881bdc88185c1c1c9bdd995960921b606082015260800190565b601f821115611e1f57600081815260208120601f850160051c81016020861015611e005750805b601f850160051c820191505b8181101561101b57828155600101611e0c565b505050565b815167ffffffffffffffff811115611e3e57611e3e611638565b611e5281611e4c8454611c5e565b84611dd9565b602080601f831160018114611e875760008415611e6f5750858301515b600019600386901b1c1916600185901b17855561101b565b600085815260208120601f198616915b82811015611eb657888601518255948401946001909101908401611e97565b5085821015611ed45787850151600019600388901b60f8161c191681555b5050505050600190811b01905550565b60208082526021908201527f455243313135353a206d696e7420746f20746865207a65726f206164647265736040820152607360f81b606082015260800190565b8082018082111561039e5761039e611d2f565b60208082526028908201527f455243313135353a2069647320616e6420616d6f756e7473206c656e677468206040820152670dad2e6dac2e8c6d60c31b606082015260800190565b604081526000611f936040830185611afe565b8281036020840152611fa58185611afe565b95945050505050565b60208082526025908201527f455243313135353a207472616e7366657220746f20746865207a65726f206164604082015264647265737360d81b606082015260800190565b6020808252602a908201527f455243313135353a20696e73756666696369656e742062616c616e636520666f60408201526939103a3930b739b332b960b11b606082015260800190565b6001600160a01b03868116825285166020820152604081018490526060810183905260a06080820181905260009061207790830184611767565b979650505050505050565b60006020828403121561209457600080fd5b8151611631816115fe565b600060033d11156120b85760046000803e5060005160e01c5b90565b600060443d10156120c95790565b6040516003193d81016004833e81513d67ffffffffffffffff81602484011181841117156120f957505050505090565b82850191508151818111156121115750505050505090565b843d870101602082850101111561212b5750505050505090565b61213a6020828601018761164e565b509095945050505050565b60208082526028908201527f455243313135353a204552433131353552656365697665722072656a656374656040820152676420746f6b656e7360c01b606082015260800190565b6001600160a01b0386811682528516602082015260a0604082018190526000906121b990830186611afe565b82810360608401526121cb8186611afe565b905082810360808401526121df8185611767565b9897505050505050505056fea2646970667358221220431958db3227937b75eaf8ed28716d8e1e272091ecc225b3365a208689a3742664736f6c63430008110033a2646970667358221220947abbaf96d25096a644116f0cacb6265c55548b4208f870ddc3fef50b51c3b164736f6c63430008110033",
    "linkReferences": {},
    "deployedLinkReferences": {}
}