{
    "_format": "hh-sol-artifact-1",
    "contractName": "FillionMarketplace",
    "sourceName": "contracts/Market.sol",
    "abi": [
        {
            "inputs": [],
            "name": "Fillion__ERC1155AlreadyListed",
            "type": "error"
        },
        {
            "inputs": [],
            "name": "Fillion__ERC1155ApprovalRequired",
            "type": "error"
        },
        {
            "inputs": [],
            "name": "Fillion__ERC1155NotOwner",
            "type": "error"
        },
        {
            "inputs": [],
            "name": "Fillion__ListingNotOpen",
            "type": "error"
        },
        {
            "inputs": [],
            "name": "Fillion__WrongPrice",
            "type": "error"
        },
        {
            "anonymous": false,
            "inputs": [
                {
                    "indexed": false,
                    "internalType": "uint256",
                    "name": "_tokenId",
                    "type": "uint256"
                },
                {
                    "indexed": false,
                    "internalType": "address",
                    "name": "_nftAddress",
                    "type": "address"
                },
                {
                    "indexed": false,
                    "internalType": "address",
                    "name": "_seller",
                    "type": "address"
                }
            ],
            "name": "ListingCancelled",
            "type": "event"
        },
        {
            "anonymous": false,
            "inputs": [
                {
                    "indexed": false,
                    "internalType": "uint256",
                    "name": "_price",
                    "type": "uint256"
                },
                {
                    "indexed": false,
                    "internalType": "uint256",
                    "name": "_tokenId",
                    "type": "uint256"
                },
                {
                    "indexed": false,
                    "internalType": "address",
                    "name": "_nftAddress",
                    "type": "address"
                },
                {
                    "indexed": false,
                    "internalType": "address",
                    "name": "_seller",
                    "type": "address"
                }
            ],
            "name": "ListingCreated",
            "type": "event"
        },
        {
            "anonymous": false,
            "inputs": [
                {
                    "indexed": false,
                    "internalType": "uint256",
                    "name": "_price",
                    "type": "uint256"
                },
                {
                    "indexed": false,
                    "internalType": "uint256",
                    "name": "_tokenId",
                    "type": "uint256"
                },
                {
                    "indexed": false,
                    "internalType": "address",
                    "name": "_nftAddress",
                    "type": "address"
                },
                {
                    "indexed": false,
                    "internalType": "address",
                    "name": "_seller",
                    "type": "address"
                },
                {
                    "indexed": false,
                    "internalType": "address",
                    "name": "_buyer",
                    "type": "address"
                }
            ],
            "name": "ListingSold",
            "type": "event"
        },
        {
            "anonymous": false,
            "inputs": [
                {
                    "indexed": true,
                    "internalType": "address",
                    "name": "previousOwner",
                    "type": "address"
                },
                {
                    "indexed": true,
                    "internalType": "address",
                    "name": "newOwner",
                    "type": "address"
                }
            ],
            "name": "OwnershipTransferred",
            "type": "event"
        },
        {
            "inputs": [
                {
                    "internalType": "address",
                    "name": "_nftAddress",
                    "type": "address"
                },
                {
                    "internalType": "uint256",
                    "name": "_tokenId",
                    "type": "uint256"
                },
                {
                    "internalType": "address",
                    "name": "_owner",
                    "type": "address"
                }
            ],
            "name": "addNFTOwnership",
            "outputs": [],
            "stateMutability": "nonpayable",
            "type": "function"
        },
        {
            "inputs": [
                {
                    "internalType": "uint256",
                    "name": "listingId",
                    "type": "uint256"
                }
            ],
            "name": "buyListing",
            "outputs": [],
            "stateMutability": "payable",
            "type": "function"
        },
        {
            "inputs": [
                {
                    "internalType": "uint256",
                    "name": "listingId",
                    "type": "uint256"
                }
            ],
            "name": "cancelListing",
            "outputs": [],
            "stateMutability": "nonpayable",
            "type": "function"
        },
        {
            "inputs": [
                {
                    "internalType": "uint256",
                    "name": "_tokenId",
                    "type": "uint256"
                },
                {
                    "internalType": "address",
                    "name": "_nftAddress",
                    "type": "address"
                },
                {
                    "internalType": "uint256",
                    "name": "_price",
                    "type": "uint256"
                }
            ],
            "name": "createListing",
            "outputs": [
                {
                    "internalType": "uint256",
                    "name": "",
                    "type": "uint256"
                }
            ],
            "stateMutability": "nonpayable",
            "type": "function"
        },
        {
            "inputs": [],
            "name": "getAllActiveListings",
            "outputs": [
                {
                    "components": [
                        {
                            "internalType": "uint256",
                            "name": "id",
                            "type": "uint256"
                        },
                        {
                            "internalType": "uint256",
                            "name": "price",
                            "type": "uint256"
                        },
                        {
                            "internalType": "uint256",
                            "name": "tokenId",
                            "type": "uint256"
                        },
                        {
                            "internalType": "address",
                            "name": "nftAddress",
                            "type": "address"
                        },
                        {
                            "internalType": "address",
                            "name": "seller",
                            "type": "address"
                        },
                        {
                            "internalType": "enum FillionMarketplace.State",
                            "name": "state",
                            "type": "uint8"
                        }
                    ],
                    "internalType": "struct FillionMarketplace.Listing[]",
                    "name": "",
                    "type": "tuple[]"
                }
            ],
            "stateMutability": "view",
            "type": "function"
        },
        {
            "inputs": [
                {
                    "internalType": "address",
                    "name": "userAddress",
                    "type": "address"
                }
            ],
            "name": "getListingsByUser",
            "outputs": [
                {
                    "components": [
                        {
                            "internalType": "uint256",
                            "name": "id",
                            "type": "uint256"
                        },
                        {
                            "internalType": "uint256",
                            "name": "price",
                            "type": "uint256"
                        },
                        {
                            "internalType": "uint256",
                            "name": "tokenId",
                            "type": "uint256"
                        },
                        {
                            "internalType": "address",
                            "name": "nftAddress",
                            "type": "address"
                        },
                        {
                            "internalType": "address",
                            "name": "seller",
                            "type": "address"
                        },
                        {
                            "internalType": "enum FillionMarketplace.State",
                            "name": "state",
                            "type": "uint8"
                        }
                    ],
                    "internalType": "struct FillionMarketplace.Listing[]",
                    "name": "",
                    "type": "tuple[]"
                }
            ],
            "stateMutability": "view",
            "type": "function"
        },
        {
            "inputs": [
                {
                    "internalType": "address",
                    "name": "userAddress",
                    "type": "address"
                }
            ],
            "name": "getUserNFTs",
            "outputs": [
                {
                    "components": [
                        {
                            "internalType": "uint256",
                            "name": "id",
                            "type": "uint256"
                        },
                        {
                            "internalType": "uint256",
                            "name": "tokenId",
                            "type": "uint256"
                        },
                        {
                            "internalType": "address",
                            "name": "nftAddress",
                            "type": "address"
                        },
                        {
                            "internalType": "string",
                            "name": "uri",
                            "type": "string"
                        },
                        {
                            "internalType": "address",
                            "name": "owner",
                            "type": "address"
                        }
                    ],
                    "internalType": "struct FillionMarketplace.NFTOwnership[]",
                    "name": "",
                    "type": "tuple[]"
                }
            ],
            "stateMutability": "view",
            "type": "function"
        },
        {
            "inputs": [
                {
                    "internalType": "uint256",
                    "name": "",
                    "type": "uint256"
                }
            ],
            "name": "idToNftOwnership",
            "outputs": [
                {
                    "internalType": "uint256",
                    "name": "id",
                    "type": "uint256"
                },
                {
                    "internalType": "uint256",
                    "name": "tokenId",
                    "type": "uint256"
                },
                {
                    "internalType": "address",
                    "name": "nftAddress",
                    "type": "address"
                },
                {
                    "internalType": "string",
                    "name": "uri",
                    "type": "string"
                },
                {
                    "internalType": "address",
                    "name": "owner",
                    "type": "address"
                }
            ],
            "stateMutability": "view",
            "type": "function"
        },
        {
            "inputs": [],
            "name": "nft",
            "outputs": [
                {
                    "internalType": "contract Collection",
                    "name": "",
                    "type": "address"
                }
            ],
            "stateMutability": "view",
            "type": "function"
        },
        {
            "inputs": [
                {
                    "internalType": "address",
                    "name": "",
                    "type": "address"
                },
                {
                    "internalType": "uint256",
                    "name": "",
                    "type": "uint256"
                }
            ],
            "name": "nftId",
            "outputs": [
                {
                    "internalType": "uint256",
                    "name": "",
                    "type": "uint256"
                }
            ],
            "stateMutability": "view",
            "type": "function"
        },
        {
            "inputs": [],
            "name": "owner",
            "outputs": [
                {
                    "internalType": "address",
                    "name": "",
                    "type": "address"
                }
            ],
            "stateMutability": "view",
            "type": "function"
        },
        {
            "inputs": [],
            "name": "renounceOwnership",
            "outputs": [],
            "stateMutability": "nonpayable",
            "type": "function"
        },
        {
            "inputs": [
                {
                    "internalType": "address",
                    "name": "newOwner",
                    "type": "address"
                }
            ],
            "name": "transferOwnership",
            "outputs": [],
            "stateMutability": "nonpayable",
            "type": "function"
        }
    ],
    "bytecode": "0x608060405234801561001057600080fd5b5061001a3361001f565b61006f565b600080546001600160a01b038381166001600160a01b0319831681178455604051919092169283917f8be0079c531659141344cd1fd0a4f28419497f9722a3daafe3b4186f6b6457e09190a35050565b611e868061007e6000396000f3fe6080604052600436106100c25760003560e01c8063701e50841161007f578063c07ba49f11610059578063c07ba49f14610209578063e26de0f114610241578063f2fde38b14610272578063fcc3b0e81461029257600080fd5b8063701e5084146101c1578063715018a6146101d65780638da5cb5b146101eb57600080fd5b8063305a67a8146100c757806347ccca02146100e95780634884f4591461012657806352de4ee51461013957806365c11bf01461016657806369df832714610194575b600080fd5b3480156100d357600080fd5b506100e76100e23660046118a2565b6102b2565b005b3480156100f557600080fd5b50600154610109906001600160a01b031681565b6040516001600160a01b0390911681526020015b60405180910390f35b6100e76101343660046118a2565b610493565b34801561014557600080fd5b506101596101543660046118d7565b6108a2565b60405161011d9190611942565b34801561017257600080fd5b506101866101813660046119e9565b610a9e565b60405190815260200161011d565b3480156101a057600080fd5b506101b46101af3660046118d7565b610e4b565b60405161011d9190611a34565b3480156101cd57600080fd5b506101b4610fda565b3480156101e257600080fd5b506100e761115a565b3480156101f757600080fd5b506000546001600160a01b0316610109565b34801561021557600080fd5b50610186610224366004611adb565b600e60209081526000928352604080842090915290825290205481565b34801561024d57600080fd5b5061026161025c3660046118a2565b61116e565b60405161011d959493929190611b05565b34801561027e57600080fd5b506100e761028d3660046118d7565b61123a565b34801561029e57600080fd5b506100e76102ad366004611b48565b6112b3565b6000818152600b60205260409081902060038101546002909101549151627eeac760e11b8152336004820152602481018390526001600160a01b039091169190829062fdd58e90604401602060405180830381865afa158015610319573d6000803e3d6000fd5b505050506040513d601f19601f8201168201806040525081019061033d9190611b84565b60000361035d5760405163a2e252bf60e01b815260040160405180910390fd5b60026000848152600b6020526040902060040154600160a01b900460ff16600281111561038c5761038c611a1e565b146103d75760405162461bcd60e51b81526020600482015260166024820152752634b9ba34b7339030b63932b0b23c9032b73232b21760511b60448201526064015b60405180910390fd5b6000838152600b60205260409020600401805460ff60a01b191690556103fc8361150f565b6000838152600b602081815260408084206003810180546001600160a01b039081168752600a85528387206002840180548952908652848820805460ff19169055968a905294845294549454600490910154825195865290841692850192909252911682820152517f6cf8b4e3257a9e5cadb99e5e7422bd64237d03982ae538bd0ea7b2b45c92c03c9181900360600190a1505050565b6000818152600b60209081526040808320815160c081018352815481526001820154938101939093526002808201549284019290925260038101546001600160a01b03908116606085015260048201549081166080850152909160a0840191600160a01b900460ff169081111561050c5761050c611a1e565b600281111561051d5761051d611a1e565b905250905060028160a00151600281111561053a5761053a611a1e565b1461055857604051639bf92e7f60e01b815260040160405180910390fd5b8060200151341461057c5760405163bcf8adeb60e01b815260040160405180910390fd5b600160a082018181526060830180516001600160a01b039081166000908152600a6020908152604080832081890180518552908352818420805460ff19169055898452600b835292208751815590870151958101959095555160028086019190915591516003850180549183166001600160a01b031992831617905560808601516004860180549190931691811682178355935186959490936001600160a81b031990911690911790600160a01b90849081111561063c5761063c611a1e565b021790555090505061064d8261150f565b60608101516001600160a01b03166000908152600e60209081526040808320818501518452909152902054608082015161068790826115e5565b61069a82606001518360400151336112b3565b600060646106a9346001611bb3565b6106b39190611bca565b9050600060646106c4346063611bb3565b6106ce9190611bca565b905060006106da611613565b6001600160a01b03168360405160006040518083038185875af1925050503d8060008114610724576040519150601f19603f3d011682016040523d82523d6000602084013e610729565b606091505b50509050600085608001516001600160a01b03168360405160006040518083038185875af1925050503d806000811461077e576040519150601f19603f3d011682016040523d82523d6000602084013e610783565b606091505b505090508180156107915750805b156100c25760015460808701516020880151604051637921219560e11b81526001600160a01b039283166004820152336024820152604481018b9052606481019190915260a06084820152600060a482015291169063f242432a9060c401600060405180830381600087803b15801561080957600080fd5b505af115801561081d573d6000803e3d6000fd5b505050507fc1a2b12422cb3f8b18005f8e1e70c7f9e8acfc0503e08ee6829a887e31d6466786602001518760400151886060015189608001513360405161089195949392919094855260208501939093526001600160a01b0391821660408501528116606084015216608082015260a00190565b60405180910390a150505050505050565b6001600160a01b0381166000908152600c60205260408120606091906108c79061162e565b805190915060008167ffffffffffffffff8111156108e7576108e7611bec565b60405190808252806020026020018201604052801561093f57816020015b6040805160a08101825260008082526020808301829052928201819052606080830152608082015282526000199092019101816109055790505b50905060005b82811015610a9557600d600085838151811061096357610963611c02565b602002602001015181526020019081526020016000206040518060a001604052908160008201548152602001600182015481526020016002820160009054906101000a90046001600160a01b03166001600160a01b03166001600160a01b031681526020016003820180546109d790611c18565b80601f0160208091040260200160405190810160405280929190818152602001828054610a0390611c18565b8015610a505780601f10610a2557610100808354040283529160200191610a50565b820191906000526020600020905b815481529060010190602001808311610a3357829003601f168201915b5050509183525050600491909101546001600160a01b03166020909101528251839083908110610a8257610a82611c02565b6020908102919091010152600101610945565b50949350505050565b604051627eeac760e11b815233600482015260248101849052600090839085906001600160a01b0383169062fdd58e90604401602060405180830381865afa158015610aee573d6000803e3d6000fd5b505050506040513d601f19601f82011682018060405250810190610b129190611b84565b600003610b325760405163a2e252bf60e01b815260040160405180910390fd5b60405163e985e9c560e01b815233600482015230602482015285906001600160a01b0382169063e985e9c590604401602060405180830381865afa158015610b7e573d6000803e3d6000fd5b505050506040513d601f19601f82011682018060405250810190610ba29190611c52565b1515600003610bc457604051630b92a09960e41b815260040160405180910390fd5b6001600160a01b0386166000908152600a602090815260408083208a84529091529020548690889060ff161515600103610c11576040516335f733bf60e21b815260040160405180910390fd5b610c1f600280546001019055565b60006040518060c00160405280610c3560025490565b8152602081018a9052604081018c90526001600160a01b038b16606082015233608082015260a001600290526001600160a01b03808b166000908152600a602090815260408083208f84528252808320805460ff1916600190811790915560098352928190208551815591850151928201929092559083015160028083019190915560608401516003830180549185166001600160a01b03199283161790556080850151600484018054919095169181168217855560a086015195965086959394926001600160a81b031990911690911790600160a01b908490811115610d1e57610d1e611a1e565b02179055505081516000908152600b6020908152604091829020845181559084015160018201559083015160028083019190915560608401516003830180546001600160a01b03199081166001600160a01b0393841617909155608086015160048501805492831691909316908117835560a0870151879650936001600160a81b03199092161790600160a01b908490811115610dbd57610dbd611a1e565b0217905550508151336000908152600860205260409020610ddf925090611642565b508051610dee90600490611642565b5060408051898152602081018c90526001600160a01b038b168183015233606082015290517f95f29aad5085555149349bf07413872facc3d99d7ab99da330821b6e3ecc37159181900360800190a1519998505050505050505050565b6001600160a01b038116600090815260086020526040812060609190610e709061162e565b805190915060008167ffffffffffffffff811115610e9057610e90611bec565b604051908082528060200260200182016040528015610ef757816020015b610ee46040805160c08101825260008082526020820181905291810182905260608101829052608081018290529060a082015290565b815260200190600190039081610eae5790505b50905060005b82811015610a9557600b6000858381518110610f1b57610f1b611c02565b6020908102919091018101518252818101929092526040908101600020815160c081018352815481526001820154938101939093526002808201549284019290925260038101546001600160a01b03908116606085015260048201549081166080850152909160a0840191600160a01b900460ff1690811115610fa057610fa0611a1e565b6002811115610fb157610fb1611a1e565b81525050828281518110610fc757610fc7611c02565b6020908102919091010152600101610efd565b60606000610fe8600461162e565b805190915060008167ffffffffffffffff81111561100857611008611bec565b60405190808252806020026020018201604052801561106f57816020015b61105c6040805160c08101825260008082526020820181905291810182905260608101829052608081018290529060a082015290565b8152602001906001900390816110265790505b50905060005b8281101561115257600b600085838151811061109357611093611c02565b6020908102919091018101518252818101929092526040908101600020815160c081018352815481526001820154938101939093526002808201549284019290925260038101546001600160a01b03908116606085015260048201549081166080850152909160a0840191600160a01b900460ff169081111561111857611118611a1e565b600281111561112957611129611a1e565b8152505082828151811061113f5761113f611c02565b6020908102919091010152600101611075565b509392505050565b61116261164e565b61116c60006116a8565b565b600d602052600090815260409020805460018201546002830154600384018054939492936001600160a01b0390921692916111a890611c18565b80601f01602080910402602001604051908101604052809291908181526020018280546111d490611c18565b80156112215780601f106111f657610100808354040283529160200191611221565b820191906000526020600020905b81548152906001019060200180831161120457829003601f168201915b505050600490930154919250506001600160a01b031685565b61124261164e565b6001600160a01b0381166112a75760405162461bcd60e51b815260206004820152602660248201527f4f776e61626c653a206e6577206f776e657220697320746865207a65726f206160448201526564647265737360d01b60648201526084016103ce565b6112b0816116a8565b50565b3330146112cf57336001600160a01b038416146112cf57600080fd5b6003546001600160a01b0384166000908152600e6020908152604080832086845290915290205411611354576001600160a01b0383166000908152600e6020908152604080832085845290915290205461132a600682611642565b506001600160a01b0382166000908152600c6020526040902061134d9082611642565b5050505050565b611362600380546001019055565b600180546001600160a01b0319166001600160a01b0385169081179091556040516303a24d0760e21b81526004810184905260009190630e89341c90602401600060405180830381865afa1580156113be573d6000803e3d6000fd5b505050506040513d6000823e601f3d908101601f191682016040526113e69190810190611c74565b905060006040518060a001604052806113fe60035490565b8152602001858152602001866001600160a01b03168152602001838152602001846001600160a01b0316815250905061143660035490565b6001600160a01b038681166000908152600e60209081526040808320898452825280832094909455600380548352600d82529184902085518155908501516001820155928401516002840180546001600160a01b031916919093161790915560608301518392918201906114aa9082611d67565b5060809190910151600490910180546001600160a01b0319166001600160a01b0390921691909117905580516114e290600690611642565b5080516001600160a01b0384166000908152600c6020526040902061150691611642565b5050505b505050565b33600090815260086020526040902061152890826116f8565b506000818152600b60209081526040808320600280820180548652600990945291909320835481556001808501549082015591548282015560038084015490830180546001600160a01b03199081166001600160a01b03938416179091556004808601805491860180549384169290941691821784555460ff600160a01b9182900416946001600160a81b03199093169091179184908111156115cd576115cd611a1e565b02179055506115e1915060049050826116f8565b5050565b6001600160a01b0382166000908152600c6020526040902061160790826116f8565b5061150a6006826116f8565b6000806116286000546001600160a01b031690565b92915050565b6060600061163b83611704565b9392505050565b600061163b8383611760565b6000546001600160a01b0316331461116c5760405162461bcd60e51b815260206004820181905260248201527f4f776e61626c653a2063616c6c6572206973206e6f7420746865206f776e657260448201526064016103ce565b600080546001600160a01b038381166001600160a01b0319831681178455604051919092169283917f8be0079c531659141344cd1fd0a4f28419497f9722a3daafe3b4186f6b6457e09190a35050565b600061163b83836117af565b60608160000180548060200260200160405190810160405280929190818152602001828054801561175457602002820191906000526020600020905b815481526020019060010190808311611740575b50505050509050919050565b60008181526001830160205260408120546117a757508154600181810184556000848152602080822090930184905584548482528286019093526040902091909155611628565b506000611628565b600081815260018301602052604081205480156118985760006117d3600183611e27565b85549091506000906117e790600190611e27565b905081811461184c57600086600001828154811061180757611807611c02565b906000526020600020015490508087600001848154811061182a5761182a611c02565b6000918252602080832090910192909255918252600188019052604090208390555b855486908061185d5761185d611e3a565b600190038181906000526020600020016000905590558560010160008681526020019081526020016000206000905560019350505050611628565b6000915050611628565b6000602082840312156118b457600080fd5b5035919050565b80356001600160a01b03811681146118d257600080fd5b919050565b6000602082840312156118e957600080fd5b61163b826118bb565b60005b8381101561190d5781810151838201526020016118f5565b50506000910152565b6000815180845261192e8160208601602086016118f2565b601f01601f19169290920160200192915050565b60006020808301818452808551808352604092508286019150828160051b87010184880160005b838110156119db57888303603f190185528151805184528781015188850152868101516001600160a01b039081168886015260608083015160a082880181905292906119b784890182611916565b60809586015190921697909401969096525050509386019390860190600101611969565b509098975050505050505050565b6000806000606084860312156119fe57600080fd5b83359250611a0e602085016118bb565b9150604084013590509250925092565b634e487b7160e01b600052602160045260246000fd5b60208082528251828201819052600091906040908185019086840185805b83811015611acd57825180518652878101518887015286810151878701526060808201516001600160a01b03908116918801919091526080808301519091169087015260a0908101519060038210611ab857634e487b7160e01b84526021600452602484fd5b86015260c09094019391860191600101611a52565b509298975050505050505050565b60008060408385031215611aee57600080fd5b611af7836118bb565b946020939093013593505050565b858152846020820152600060018060a01b03808616604084015260a06060840152611b3360a0840186611916565b91508084166080840152509695505050505050565b600080600060608486031215611b5d57600080fd5b611b66846118bb565b925060208401359150611b7b604085016118bb565b90509250925092565b600060208284031215611b9657600080fd5b5051919050565b634e487b7160e01b600052601160045260246000fd5b808202811582820484141761162857611628611b9d565b600082611be757634e487b7160e01b600052601260045260246000fd5b500490565b634e487b7160e01b600052604160045260246000fd5b634e487b7160e01b600052603260045260246000fd5b600181811c90821680611c2c57607f821691505b602082108103611c4c57634e487b7160e01b600052602260045260246000fd5b50919050565b600060208284031215611c6457600080fd5b8151801515811461163b57600080fd5b600060208284031215611c8657600080fd5b815167ffffffffffffffff80821115611c9e57600080fd5b818401915084601f830112611cb257600080fd5b815181811115611cc457611cc4611bec565b604051601f8201601f19908116603f01168101908382118183101715611cec57611cec611bec565b81604052828152876020848701011115611d0557600080fd5b611d168360208301602088016118f2565b979650505050505050565b601f82111561150a57600081815260208120601f850160051c81016020861015611d485750805b601f850160051c820191505b8181101561150657828155600101611d54565b815167ffffffffffffffff811115611d8157611d81611bec565b611d9581611d8f8454611c18565b84611d21565b602080601f831160018114611dca5760008415611db25750858301515b600019600386901b1c1916600185901b178555611506565b600085815260208120601f198616915b82811015611df957888601518255948401946001909101908401611dda565b5085821015611e175787850151600019600388901b60f8161c191681555b5050505050600190811b01905550565b8181038181111561162857611628611b9d565b634e487b7160e01b600052603160045260246000fdfea2646970667358221220366a63d5a240f4d934267cf75a22d929309f39bfa86ef8091bec8016a1080e4e64736f6c63430008110033",
    "linkReferences": {},
    "deployedLinkReferences": {}
}