{
    "_format": "hh-sol-artifact-1",
    "contractName": "FillionArtist",
    "sourceName": "contracts/FillionArtist.sol",
    "abi": [
        {
            "inputs": [],
            "name": "Fillion__AlreadyAnArtist",
            "type": "error"
        },
        {
            "inputs": [],
            "name": "Fillion__OnlyArtists",
            "type": "error"
        },
        {
            "anonymous": false,
            "inputs": [
                {
                    "indexed": false,
                    "internalType": "uint256",
                    "name": "id",
                    "type": "uint256"
                },
                {
                    "indexed": false,
                    "internalType": "uint256",
                    "name": "dateJoined",
                    "type": "uint256"
                },
                {
                    "indexed": false,
                    "internalType": "address",
                    "name": "artistAddress",
                    "type": "address"
                },
                {
                    "indexed": false,
                    "internalType": "string",
                    "name": "artistDetails",
                    "type": "string"
                }
            ],
            "name": "newArtistJoined",
            "type": "event"
        },
        {
            "inputs": [
                {
                    "internalType": "uint256",
                    "name": "",
                    "type": "uint256"
                }
            ],
            "name": "addressById",
            "outputs": [
                {
                    "internalType": "address",
                    "name": "",
                    "type": "address"
                }
            ],
            "stateMutability": "view",
            "type": "function"
        },
        {
            "inputs": [
                {
                    "internalType": "address",
                    "name": "",
                    "type": "address"
                }
            ],
            "name": "artistByAddress",
            "outputs": [
                {
                    "internalType": "uint256",
                    "name": "id",
                    "type": "uint256"
                },
                {
                    "internalType": "uint256",
                    "name": "dateJoined",
                    "type": "uint256"
                },
                {
                    "internalType": "address",
                    "name": "artistAddress",
                    "type": "address"
                },
                {
                    "internalType": "string",
                    "name": "artistDetails",
                    "type": "string"
                }
            ],
            "stateMutability": "view",
            "type": "function"
        },
        {
            "inputs": [],
            "name": "artistCount",
            "outputs": [
                {
                    "internalType": "uint256",
                    "name": "",
                    "type": "uint256"
                }
            ],
            "stateMutability": "view",
            "type": "function"
        },
        {
            "inputs": [
                {
                    "internalType": "uint256",
                    "name": "",
                    "type": "uint256"
                }
            ],
            "name": "artists",
            "outputs": [
                {
                    "internalType": "uint256",
                    "name": "id",
                    "type": "uint256"
                },
                {
                    "internalType": "uint256",
                    "name": "dateJoined",
                    "type": "uint256"
                },
                {
                    "internalType": "address",
                    "name": "artistAddress",
                    "type": "address"
                },
                {
                    "internalType": "string",
                    "name": "artistDetails",
                    "type": "string"
                }
            ],
            "stateMutability": "view",
            "type": "function"
        },
        {
            "inputs": [],
            "name": "getAllArtists",
            "outputs": [
                {
                    "components": [
                        {
                            "internalType": "uint256",
                            "name": "id",
                            "type": "uint256"
                        },
                        {
                            "internalType": "uint256",
                            "name": "dateJoined",
                            "type": "uint256"
                        },
                        {
                            "internalType": "address",
                            "name": "artistAddress",
                            "type": "address"
                        },
                        {
                            "internalType": "string",
                            "name": "artistDetails",
                            "type": "string"
                        }
                    ],
                    "internalType": "struct FillionArtist.Artist[]",
                    "name": "",
                    "type": "tuple[]"
                }
            ],
            "stateMutability": "view",
            "type": "function"
        },
        {
            "inputs": [
                {
                    "internalType": "address",
                    "name": "",
                    "type": "address"
                }
            ],
            "name": "isArtist",
            "outputs": [
                {
                    "internalType": "bool",
                    "name": "",
                    "type": "bool"
                }
            ],
            "stateMutability": "view",
            "type": "function"
        },
        {
            "inputs": [
                {
                    "internalType": "string",
                    "name": "_artistDetails",
                    "type": "string"
                }
            ],
            "name": "newArtistSignup",
            "outputs": [],
            "stateMutability": "nonpayable",
            "type": "function"
        },
        {
            "inputs": [
                {
                    "internalType": "string",
                    "name": "_artistDetails",
                    "type": "string"
                },
                {
                    "internalType": "uint256",
                    "name": "_artistid",
                    "type": "uint256"
                }
            ],
            "name": "updateArtistDetails",
            "outputs": [],
            "stateMutability": "nonpayable",
            "type": "function"
        }
    ],
    "bytecode": "0x60806040526000805534801561001457600080fd5b50610ab8806100246000396000f3fe608060405234801561001057600080fd5b50600436106100885760003560e01c8063be5304821161005b578063be5304821461013e578063cd7e10c114610155578063dcbf58bf14610168578063f803ace31461017b57600080fd5b80635508c6971461008d5780636b2f65b0146100a25780638162c17b146100da57806387d3a024146100fd575b600080fd5b6100a061009b366004610736565b610190565b005b6100c56100b0366004610773565b60026020526000908152604090205460ff1681565b60405190151581526020015b60405180910390f35b6100ed6100e8366004610773565b6103c0565b6040516100d194939291906107e9565b61012661010b366004610820565b6004602052600090815260409020546001600160a01b031681565b6040516001600160a01b0390911681526020016100d1565b61014760005481565b6040519081526020016100d1565b6100ed610163366004610820565b61047e565b6100a0610176366004610839565b6104cd565b610183610577565b6040516100d1919061087e565b3360009081526002602052604090205460ff1615156001036101c55760405163164cc74d60e31b815260040160405180910390fd5b60008151116101d357600080fd5b6000805490806101e283610912565b909155505060408051608081018252600080548252426020808401918252338486018181526060860188815291855260029092529483208054600160ff19909116811790915560058054918201815590935283517f036b6384b5eca791c62761152d0c79bb0604c104a5fb6f4eb0703f3154bb3db0600490940293840190815591517f036b6384b5eca791c62761152d0c79bb0604c104a5fb6f4eb0703f3154bb3db1840155517f036b6384b5eca791c62761152d0c79bb0604c104a5fb6f4eb0703f3154bb3db2830180546001600160a01b0319166001600160a01b0390921691909117905592519192839290917f036b6384b5eca791c62761152d0c79bb0604c104a5fb6f4eb0703f3154bb3db301906102fe90826109c2565b50503360009081526003602081815260409283902085518155908501516001820155918401516002830180546001600160a01b0319166001600160a01b0390921691909117905560608401518493509082019061035b90826109c2565b50506000805481526004602052604080822080546001600160a01b03191633908117909155915490517f084e9726d8621cec5b0cc5189b3ae44b6ad7a59c579f918937e546356fbb844293506103b492429187906107e9565b60405180910390a15050565b60036020819052600091825260409091208054600182015460028301549383018054929491936001600160a01b03909216926103fb90610939565b80601f016020809104026020016040519081016040528092919081815260200182805461042790610939565b80156104745780601f1061044957610100808354040283529160200191610474565b820191906000526020600020905b81548152906001019060200180831161045757829003601f168201915b5050505050905084565b6005818154811061048e57600080fd5b6000918252602090912060049091020180546001820154600283015460038401805493955091936001600160a01b03909116929091906103fb90610939565b3360009081526002602052604081205460ff161515900361050157604051635c20ea7760e01b815260040160405180910390fd5b6000818152600460205260409020546001600160a01b0316331461052457600080fd5b3360009081526003602081905260409091200161054183826109c2565b507f084e9726d8621cec5b0cc5189b3ae44b6ad7a59c579f918937e546356fbb8442814233856040516103b494939291906107e9565b60606005805480602002602001604051908101604052809291908181526020016000905b8282101561068a57600084815260209081902060408051608081018252600486029092018054835260018101549383019390935260028301546001600160a01b0316908201526003820180549192916060840191906105f990610939565b80601f016020809104026020016040519081016040528092919081815260200182805461062590610939565b80156106725780601f1061064757610100808354040283529160200191610672565b820191906000526020600020905b81548152906001019060200180831161065557829003601f168201915b5050505050815250508152602001906001019061059b565b50505050905090565b634e487b7160e01b600052604160045260246000fd5b600082601f8301126106ba57600080fd5b813567ffffffffffffffff808211156106d5576106d5610693565b604051601f8301601f19908116603f011681019082821181831017156106fd576106fd610693565b8160405283815286602085880101111561071657600080fd5b836020870160208301376000602085830101528094505050505092915050565b60006020828403121561074857600080fd5b813567ffffffffffffffff81111561075f57600080fd5b61076b848285016106a9565b949350505050565b60006020828403121561078557600080fd5b81356001600160a01b038116811461079c57600080fd5b9392505050565b6000815180845260005b818110156107c9576020818501810151868301820152016107ad565b506000602082860101526020601f19601f83011685010191505092915050565b84815283602082015260018060a01b038316604082015260806060820152600061081660808301846107a3565b9695505050505050565b60006020828403121561083257600080fd5b5035919050565b6000806040838503121561084c57600080fd5b823567ffffffffffffffff81111561086357600080fd5b61086f858286016106a9565b95602094909401359450505050565b60006020808301818452808551808352604092508286019150828160051b87010184880160005b8381101561090457888303603f190185528151805184528781015188850152868101516001600160a01b0316878501526060908101516080918501829052906108f0818601836107a3565b9689019694505050908601906001016108a5565b509098975050505050505050565b60006001820161093257634e487b7160e01b600052601160045260246000fd5b5060010190565b600181811c9082168061094d57607f821691505b60208210810361096d57634e487b7160e01b600052602260045260246000fd5b50919050565b601f8211156109bd57600081815260208120601f850160051c8101602086101561099a5750805b601f850160051c820191505b818110156109b9578281556001016109a6565b5050505b505050565b815167ffffffffffffffff8111156109dc576109dc610693565b6109f0816109ea8454610939565b84610973565b602080601f831160018114610a255760008415610a0d5750858301515b600019600386901b1c1916600185901b1785556109b9565b600085815260208120601f198616915b82811015610a5457888601518255948401946001909101908401610a35565b5085821015610a725787850151600019600388901b60f8161c191681555b5050505050600190811b0190555056fea2646970667358221220d2c9e70b43de2248b7abb3194d782728b09f624544495f179f9038ee797bd4ae64736f6c63430008110033",
    "linkReferences": {},
    "deployedLinkReferences": {}
}