{
    "_format": "hh-sol-artifact-1",
    "contractName": "FillionFactory",
    "sourceName": "contracts/FillionFactory.sol",
    "abi": [
        {
            "inputs": [
                {
                    "internalType": "address",
                    "name": "_artistContract",
                    "type": "address"
                }
            ],
            "stateMutability": "nonpayable",
            "type": "constructor"
        },
        {
            "anonymous": false,
            "inputs": [
                {
                    "indexed": true,
                    "internalType": "address",
                    "name": "owner",
                    "type": "address"
                },
                {
                    "indexed": true,
                    "internalType": "address",
                    "name": "tokenContract",
                    "type": "address"
                }
            ],
            "name": "ERC1155Created",
            "type": "event"
        },
        {
            "inputs": [
                {
                    "internalType": "address",
                    "name": "artist",
                    "type": "address"
                }
            ],
            "name": "AllArtistContracts",
            "outputs": [
                {
                    "internalType": "address[]",
                    "name": "",
                    "type": "address[]"
                }
            ],
            "stateMutability": "view",
            "type": "function"
        },
        {
            "inputs": [
                {
                    "internalType": "uint256",
                    "name": "",
                    "type": "uint256"
                }
            ],
            "name": "AllCollections",
            "outputs": [
                {
                    "internalType": "address",
                    "name": "",
                    "type": "address"
                }
            ],
            "stateMutability": "view",
            "type": "function"
        },
        {
            "inputs": [
                {
                    "internalType": "address",
                    "name": "",
                    "type": "address"
                },
                {
                    "internalType": "uint256",
                    "name": "",
                    "type": "uint256"
                }
            ],
            "name": "ArtistToContracts",
            "outputs": [
                {
                    "internalType": "address",
                    "name": "",
                    "type": "address"
                }
            ],
            "stateMutability": "view",
            "type": "function"
        },
        {
            "inputs": [
                {
                    "internalType": "string",
                    "name": "_contractHash",
                    "type": "string"
                },
                {
                    "internalType": "string[]",
                    "name": "_hashOfNFTS",
                    "type": "string[]"
                },
                {
                    "internalType": "uint256[]",
                    "name": "_ids",
                    "type": "uint256[]"
                },
                {
                    "internalType": "uint256[]",
                    "name": "quantities",
                    "type": "uint256[]"
                }
            ],
            "name": "deployERC1155",
            "outputs": [
                {
                    "internalType": "address",
                    "name": "",
                    "type": "address"
                }
            ],
            "stateMutability": "nonpayable",
            "type": "function"
        },
        {
            "inputs": [],
            "name": "getAllCollections",
            "outputs": [
                {
                    "internalType": "address[]",
                    "name": "",
                    "type": "address[]"
                }
            ],
            "stateMutability": "view",
            "type": "function"
        },
        {
            "inputs": [
                {
                    "internalType": "address",
                    "name": "t",
                    "type": "address"
                }
            ],
            "name": "mintCollection",
            "outputs": [],
            "stateMutability": "nonpayable",
            "type": "function"
        }
    ],
    "bytecode": "0x608060405234801561001057600080fd5b50604051612e11380380612e1183398101604081905261002f91610054565b600180546001600160a01b0319166001600160a01b0392909216919091179055610084565b60006020828403121561006657600080fd5b81516001600160a01b038116811461007d57600080fd5b9392505050565b612d7e806100936000396000f3fe60806040523480156200001157600080fd5b50600436106200006a5760003560e01c80633ebbad2e146200006f5780636804a95814620000885780638c031c0314620000aa57806393fd6c1914620000da578063e05bbbc314620000f1578063fde899121462000108575b600080fd5b620000866200008036600462000413565b6200011f565b005b62000092620001bc565b604051620000a1919062000438565b60405180910390f35b620000c1620000bb366004620005e2565b62000220565b6040516001600160a01b039091168152602001620000a1565b620000c1620000eb36600462000713565b6200030e565b620000c1620001023660046200072d565b62000339565b620000926200011936600462000413565b62000372565b60408051600481526024810182526020810180516001600160e01b031663595882b360e01b179052905182916000916001600160a01b03841691620001649162000780565b6000604051808303816000865af19150503d8060008114620001a3576040519150601f19603f3d011682016040523d82523d6000602084013e620001a8565b606091505b5050905080620001b757600080fd5b505050565b606060028054806020026020016040519081016040528092919081815260200182805480156200021657602002820191906000526020600020905b81546001600160a01b03168152600190910190602001808311620001f7575b5050505050905090565b60008085858585336040516200023690620003e8565b6200024695949392919062000809565b604051809103906000f08015801562000263573d6000803e3d6000fd5b503360008181526020818152604080832080546001818101835591855292842090920180546001600160a01b0387166001600160a01b0319918216811790925560028054948501815585527f405787fa12a823e0f2b7631cc41b3ba8828b3321ca811111fa75cd3aa3bb5ace9093018054909316811790925551939450927f7192d7c1a7c7914e1e82105dd5dcd5bdf88dc7eb0c2899d498664be8f0e406c59190a395945050505050565b600281815481106200031f57600080fd5b6000918252602090912001546001600160a01b0316905081565b600060205281600052604060002081815481106200035657600080fd5b6000918252602090912001546001600160a01b03169150829050565b6001600160a01b03811660009081526020818152604091829020805483518184028101840190945280845260609392830182828015620003dc57602002820191906000526020600020905b81546001600160a01b03168152600190910190602001808311620003bd575b50505050509050919050565b61248380620008c683390190565b80356001600160a01b03811681146200040e57600080fd5b919050565b6000602082840312156200042657600080fd5b6200043182620003f6565b9392505050565b6020808252825182820181905260009190848201906040850190845b818110156200047b5783516001600160a01b03168352928401929184019160010162000454565b50909695505050505050565b634e487b7160e01b600052604160045260246000fd5b604051601f8201601f1916810167ffffffffffffffff81118282101715620004c957620004c962000487565b604052919050565b600082601f830112620004e357600080fd5b813567ffffffffffffffff81111562000500576200050062000487565b62000515601f8201601f19166020016200049d565b8181528460208386010111156200052b57600080fd5b816020850160208301376000918101602001919091529392505050565b600067ffffffffffffffff82111562000565576200056562000487565b5060051b60200190565b600082601f8301126200058157600080fd5b813560206200059a620005948362000548565b6200049d565b82815260059290921b84018101918181019086841115620005ba57600080fd5b8286015b84811015620005d75780358352918301918301620005be565b509695505050505050565b60008060008060808587031215620005f957600080fd5b843567ffffffffffffffff808211156200061257600080fd5b6200062088838901620004d1565b95506020915081870135818111156200063857600080fd5b8701601f810189136200064a57600080fd5b80356200065b620005948262000548565b81815260059190911b8201840190848101908b8311156200067b57600080fd5b8584015b83811015620006b857803586811115620006995760008081fd5b620006a98e8983890101620004d1565b8452509186019186016200067f565b5097505050506040870135915080821115620006d357600080fd5b620006e1888389016200056f565b93506060870135915080821115620006f857600080fd5b5062000707878288016200056f565b91505092959194509250565b6000602082840312156200072657600080fd5b5035919050565b600080604083850312156200074157600080fd5b6200074c83620003f6565b946020939093013593505050565b60005b83811015620007775781810151838201526020016200075d565b50506000910152565b60008251620007948184602087016200075a565b9190910192915050565b60008151808452620007b88160208601602086016200075a565b601f01601f19169290920160200192915050565b600081518084526020808501945080840160005b83811015620007fe57815187529582019590820190600101620007e0565b509495945050505050565b60a0815260006200081e60a08301886200079e565b6020838203818501528188518084528284019150828160051b850101838b0160005b838110156200087257601f198784030185526200085f8383516200079e565b9486019492509085019060010162000840565b5050868103604088015262000888818b620007cc565b9450505050508281036060840152620008a28186620007cc565b915050620008bb60808301846001600160a01b03169052565b969550505050505056fe6080604052600780546001600160a01b031916735fbdb2315678afecb367f032d93f642f64180aa31790553480156200003757600080fd5b5060405162002483380380620024838339810160408190526200005a916200059d565b60408051602081019091526000815262000074816200019f565b506200008033620001b1565b815184511415806200009457508251845114155b15620000b35760405163440de63f60e01b815260040160405180910390fd5b6008620000c1868262000770565b508151620000d7906009906020850190620002f1565b508351620000ed90600a90602087019062000341565b5082516200010390600b906020860190620002f1565b50835160005b8181101562000187576200012960056200020360201b6200096f1760201c565b8581815181106200013e576200013e6200083c565b6020026020010151600660006200016160056200020c60201b620009781760201c565b815260200190815260200160002090816200017d919062000770565b5060010162000109565b50620001938262000210565b50505050505062000852565b6002620001ad828262000770565b5050565b600480546001600160a01b038381166001600160a01b0319831681179093556040519116919082907f8be0079c531659141344cd1fd0a4f28419497f9722a3daafe3b4186f6b6457e090600090a35050565b80546001019055565b5490565b6200021a62000293565b6001600160a01b038116620002855760405162461bcd60e51b815260206004820152602660248201527f4f776e61626c653a206e6577206f776e657220697320746865207a65726f206160448201526564647265737360d01b60648201526084015b60405180910390fd5b6200029081620001b1565b50565b6004546001600160a01b03163314620002ef5760405162461bcd60e51b815260206004820181905260248201527f4f776e61626c653a2063616c6c6572206973206e6f7420746865206f776e657260448201526064016200027c565b565b8280548282559060005260206000209081019282156200032f579160200282015b828111156200032f57825182559160200191906001019062000312565b506200033d9291506200039a565b5090565b8280548282559060005260206000209081019282156200038c579160200282015b828111156200038c57825182906200037b908262000770565b509160200191906001019062000362565b506200033d929150620003b1565b5b808211156200033d57600081556001016200039b565b808211156200033d576000620003c88282620003d2565b50600101620003b1565b508054620003e090620006e1565b6000825580601f10620003f1575050565b601f0160209004906000526020600020908101906200029091906200039a565b634e487b7160e01b600052604160045260246000fd5b604051601f8201601f191681016001600160401b038111828210171562000452576200045262000411565b604052919050565b600082601f8301126200046c57600080fd5b81516001600160401b0381111562000488576200048862000411565b60206200049e601f8301601f1916820162000427565b8281528582848701011115620004b357600080fd5b60005b83811015620004d3578581018301518282018401528201620004b6565b506000928101909101919091529392505050565b60006001600160401b0382111562000503576200050362000411565b5060051b60200190565b600082601f8301126200051f57600080fd5b81516020620005386200053283620004e7565b62000427565b82815260059290921b840181019181810190868411156200055857600080fd5b8286015b848110156200057557805183529183019183016200055c565b509695505050505050565b80516001600160a01b03811681146200059857600080fd5b919050565b600080600080600060a08688031215620005b657600080fd5b85516001600160401b0380821115620005ce57600080fd5b620005dc89838a016200045a565b9650602091508188015181811115620005f457600080fd5b8801601f81018a136200060657600080fd5b8051620006176200053282620004e7565b81815260059190911b8201840190848101908c8311156200063757600080fd5b8584015b838110156200067457805186811115620006555760008081fd5b620006658f89838901016200045a565b8452509186019186016200063b565b5060408c01519099509450505050808211156200069057600080fd5b6200069e89838a016200050d565b94506060880151915080821115620006b557600080fd5b50620006c4888289016200050d565b925050620006d56080870162000580565b90509295509295909350565b600181811c90821680620006f657607f821691505b6020821081036200071757634e487b7160e01b600052602260045260246000fd5b50919050565b601f8211156200076b57600081815260208120601f850160051c81016020861015620007465750805b601f850160051c820191505b81811015620007675782815560010162000752565b5050505b505050565b81516001600160401b038111156200078c576200078c62000411565b620007a4816200079d8454620006e1565b846200071d565b602080601f831160018114620007dc5760008415620007c35750858301515b600019600386901b1c1916600185901b17855562000767565b600085815260208120601f198616915b828110156200080d57888601518255948401946001909101908401620007ec565b50858210156200082c5787850151600019600388901b60f8161c191681555b5050505050600190811b01905550565b634e487b7160e01b600052603260045260246000fd5b611c2180620008626000396000f3fe608060405234801561001057600080fd5b50600436106101365760003560e01c8063715018a6116100b8578063bd85b0391161007c578063bd85b03914610290578063dd15422b146102b0578063e985e9c5146102c3578063f1264ab1146102d6578063f242432a146102e9578063f2fde38b146102fc57600080fd5b8063715018a6146102495780638da5cb5b14610251578063904c609414610262578063a22cb4651461026a578063a41254031461027d57600080fd5b80632e25d2a6116100ff5780632e25d2a6146101bf5780632eb2c2d6146101ea5780634e1273f4146101ff5780634f558e791461021f578063595882b31461024157600080fd5b8062fdd58e1461013b57806301ffc9a7146101615780630bb78ec1146101845780630e89341c146101a457806315ed4179146101b7575b600080fd5b61014e61014936600461138b565b61030f565b6040519081526020015b60405180910390f35b61017461016f3660046113cb565b6103a8565b6040519015158152602001610158565b6101976101923660046113e8565b6103f8565b6040516101589190611447565b6101976101b23660046113e8565b610492565b61014e61055f565b6007546101d2906001600160a01b031681565b6040516001600160a01b039091168152602001610158565b6101fd6101f83660046115a6565b61056f565b005b61021261020d366004611650565b6105bb565b6040516101589190611756565b61017461022d3660046113e8565b600090815260036020526040902054151590565b6101fd6106e5565b6101fd6107d5565b6004546001600160a01b03166101d2565b6101976107e7565b6101fd610278366004611769565b6107f4565b61014e61028b3660046113e8565b610803565b61014e61029e3660046113e8565b60009081526003602052604090205490565b61014e6102be3660046113e8565b610824565b6101746102d13660046117a5565b610834565b6101976102e43660046113e8565b610886565b6101fd6102f73660046117d8565b6108b1565b6101fd61030a36600461183d565b6108f6565b60006001600160a01b03831661037f5760405162461bcd60e51b815260206004820152602a60248201527f455243313135353a2061646472657373207a65726f206973206e6f742061207660448201526930b634b21037bbb732b960b11b60648201526084015b60405180910390fd5b506000818152602081815260408083206001600160a01b03861684529091529020545b92915050565b60006001600160e01b03198216636cdb3d1360e11b14806103d957506001600160e01b031982166303a24d0760e21b145b806103a257506301ffc9a760e01b6001600160e01b03198316146103a2565b6006602052600090815260409020805461041190611858565b80601f016020809104026020016040519081016040528092919081815260200182805461043d90611858565b801561048a5780601f1061045f5761010080835404028352916020019161048a565b820191906000526020600020905b81548152906001019060200180831161046d57829003601f168201915b505050505081565b6000818152600360205260409020546060906104c157604051634a1850bf60e11b815260040160405180910390fd5b600082815260066020526040902080546104da90611858565b80601f016020809104026020016040519081016040528092919081815260200182805461050690611858565b80156105535780601f1061052857610100808354040283529160200191610553565b820191906000526020600020905b81548152906001019060200180831161053657829003601f168201915b50505050509050919050565b600061056a60055490565b905090565b6001600160a01b03851633148061058b575061058b8533610834565b6105a75760405162461bcd60e51b815260040161037690611892565b6105b4858585858561097c565b5050505050565b606081518351146106205760405162461bcd60e51b815260206004820152602960248201527f455243313135353a206163636f756e747320616e6420696473206c656e677468604482015268040dad2e6dac2e8c6d60bb1b6064820152608401610376565b6000835167ffffffffffffffff81111561063c5761063c61145a565b604051908082528060200260200182016040528015610665578160200160208202803683370190505b50905060005b84518110156106dd576106b0858281518110610689576106896118e0565b60200260200101518583815181106106a3576106a36118e0565b602002602001015161030f565b8282815181106106c2576106c26118e0565b60209081029190910101526106d68161190c565b905061066b565b509392505050565b6106ed610b26565b600454600160a01b900460ff161561070457600080fd5b6004805460ff60a01b1916600160a01b179055600b8054604080516020808402820181019092528281526107d3933393919290919083018282801561076857602002820191906000526020600020905b815481526020019060010190808311610754575b505050505060098054806020026020016040519081016040528092919081815260200182805480156107b957602002820191906000526020600020905b8154815260200190600101908083116107a5575b505050505060405180602001604052806000815250610b80565b565b6107dd610b26565b6107d36000610d14565b6008805461041190611858565b6107ff338383610d66565b5050565b6009818154811061081357600080fd5b600091825260209091200154905081565b600b818154811061081357600080fd5b6007546000906001600160a01b0390811690831603610855575060016103a2565b6001600160a01b0380841660009081526001602090815260408083209386168352929052205460ff165b9392505050565b600a818154811061089657600080fd5b90600052602060002001600091509050805461041190611858565b6001600160a01b0385163314806108cd57506108cd8533610834565b6108e95760405162461bcd60e51b815260040161037690611892565b6105b48585858585610e46565b6108fe610b26565b6001600160a01b0381166109635760405162461bcd60e51b815260206004820152602660248201527f4f776e61626c653a206e6577206f776e657220697320746865207a65726f206160448201526564647265737360d01b6064820152608401610376565b61096c81610d14565b50565b80546001019055565b5490565b815183511461099d5760405162461bcd60e51b815260040161037690611925565b6001600160a01b0384166109c35760405162461bcd60e51b81526004016103769061196d565b336109d2818787878787610f7e565b60005b8451811015610ab85760008582815181106109f2576109f26118e0565b602002602001015190506000858381518110610a1057610a106118e0565b602090810291909101810151600084815280835260408082206001600160a01b038e168352909352919091205490915081811015610a605760405162461bcd60e51b8152600401610376906119b2565b6000838152602081815260408083206001600160a01b038e8116855292528083208585039055908b16825281208054849290610a9d9084906119fc565b9250508190555050505080610ab19061190c565b90506109d5565b50846001600160a01b0316866001600160a01b0316826001600160a01b03167f4a39dc06d4c0dbc64b70af90fd698a233a518aa5d07e595d983b8c0526c8f7fb8787604051610b08929190611a0f565b60405180910390a4610b1e818787878787610f8c565b505050505050565b6004546001600160a01b031633146107d35760405162461bcd60e51b815260206004820181905260248201527f4f776e61626c653a2063616c6c6572206973206e6f7420746865206f776e65726044820152606401610376565b6001600160a01b038416610be05760405162461bcd60e51b815260206004820152602160248201527f455243313135353a206d696e7420746f20746865207a65726f206164647265736044820152607360f81b6064820152608401610376565b8151835114610c015760405162461bcd60e51b815260040161037690611925565b33610c1181600087878787610f7e565b60005b8451811015610cac57838181518110610c2f57610c2f6118e0565b6020026020010151600080878481518110610c4c57610c4c6118e0565b602002602001015181526020019081526020016000206000886001600160a01b03166001600160a01b031681526020019081526020016000206000828254610c9491906119fc565b90915550819050610ca48161190c565b915050610c14565b50846001600160a01b031660006001600160a01b0316826001600160a01b03167f4a39dc06d4c0dbc64b70af90fd698a233a518aa5d07e595d983b8c0526c8f7fb8787604051610cfd929190611a0f565b60405180910390a46105b481600087878787610f8c565b600480546001600160a01b038381166001600160a01b0319831681179093556040519116919082907f8be0079c531659141344cd1fd0a4f28419497f9722a3daafe3b4186f6b6457e090600090a35050565b816001600160a01b0316836001600160a01b031603610dd95760405162461bcd60e51b815260206004820152602960248201527f455243313135353a2073657474696e6720617070726f76616c20737461747573604482015268103337b91039b2b63360b91b6064820152608401610376565b6001600160a01b03838116600081815260016020908152604080832094871680845294825291829020805460ff191686151590811790915591519182527f17307eab39ab6107e8899845ad3d59bd9653f200f220920489ca2b5937696c31910160405180910390a3505050565b6001600160a01b038416610e6c5760405162461bcd60e51b81526004016103769061196d565b336000610e78856110f0565b90506000610e85856110f0565b9050610e95838989858589610f7e565b6000868152602081815260408083206001600160a01b038c16845290915290205485811015610ed65760405162461bcd60e51b8152600401610376906119b2565b6000878152602081815260408083206001600160a01b038d8116855292528083208985039055908a16825281208054889290610f139084906119fc565b909155505060408051888152602081018890526001600160a01b03808b16928c821692918816917fc3d58168c5ae7397731d063d5bbf3d657854427343f4c083240f7aacaa2d0f62910160405180910390a4610f73848a8a8a8a8a61113b565b505050505050505050565b610b1e8686868686866111f6565b6001600160a01b0384163b15610b1e5760405163bc197c8160e01b81526001600160a01b0385169063bc197c8190610fd09089908990889088908890600401611a3d565b6020604051808303816000875af192505050801561100b575060408051601f3d908101601f1916820190925261100891810190611a9b565b60015b6110b757611017611ab8565b806308c379a003611050575061102b611ad4565b806110365750611052565b8060405162461bcd60e51b81526004016103769190611447565b505b60405162461bcd60e51b815260206004820152603460248201527f455243313135353a207472616e7366657220746f206e6f6e2d455243313135356044820152732932b1b2b4bb32b91034b6b83632b6b2b73a32b960611b6064820152608401610376565b6001600160e01b0319811663bc197c8160e01b146110e75760405162461bcd60e51b815260040161037690611b5e565b50505050505050565b6040805160018082528183019092526060916000919060208083019080368337019050509050828160008151811061112a5761112a6118e0565b602090810291909101015292915050565b6001600160a01b0384163b15610b1e5760405163f23a6e6160e01b81526001600160a01b0385169063f23a6e619061117f9089908990889088908890600401611ba6565b6020604051808303816000875af19250505080156111ba575060408051601f3d908101601f191682019092526111b791810190611a9b565b60015b6111c657611017611ab8565b6001600160e01b0319811663f23a6e6160e01b146110e75760405162461bcd60e51b815260040161037690611b5e565b6001600160a01b03851661127d5760005b835181101561127b57828181518110611222576112226118e0565b602002602001015160036000868481518110611240576112406118e0565b60200260200101518152602001908152602001600020600082825461126591906119fc565b9091555061127490508161190c565b9050611207565b505b6001600160a01b038416610b1e5760005b83518110156110e75760008482815181106112ab576112ab6118e0565b6020026020010151905060008483815181106112c9576112c96118e0565b602002602001015190506000600360008481526020019081526020016000205490508181101561134c5760405162461bcd60e51b815260206004820152602860248201527f455243313135353a206275726e20616d6f756e74206578636565647320746f74604482015267616c537570706c7960c01b6064820152608401610376565b600092835260036020526040909220910390556113688161190c565b905061128e565b80356001600160a01b038116811461138657600080fd5b919050565b6000806040838503121561139e57600080fd5b6113a78361136f565b946020939093013593505050565b6001600160e01b03198116811461096c57600080fd5b6000602082840312156113dd57600080fd5b813561087f816113b5565b6000602082840312156113fa57600080fd5b5035919050565b6000815180845260005b818110156114275760208185018101518683018201520161140b565b506000602082860101526020601f19601f83011685010191505092915050565b60208152600061087f6020830184611401565b634e487b7160e01b600052604160045260246000fd5b601f8201601f1916810167ffffffffffffffff811182821017156114965761149661145a565b6040525050565b600067ffffffffffffffff8211156114b7576114b761145a565b5060051b60200190565b600082601f8301126114d257600080fd5b813560206114df8261149d565b6040516114ec8282611470565b83815260059390931b850182019282810191508684111561150c57600080fd5b8286015b848110156115275780358352918301918301611510565b509695505050505050565b600082601f83011261154357600080fd5b813567ffffffffffffffff81111561155d5761155d61145a565b604051611574601f8301601f191660200182611470565b81815284602083860101111561158957600080fd5b816020850160208301376000918101602001919091529392505050565b600080600080600060a086880312156115be57600080fd5b6115c78661136f565b94506115d56020870161136f565b9350604086013567ffffffffffffffff808211156115f257600080fd5b6115fe89838a016114c1565b9450606088013591508082111561161457600080fd5b61162089838a016114c1565b9350608088013591508082111561163657600080fd5b5061164388828901611532565b9150509295509295909350565b6000806040838503121561166357600080fd5b823567ffffffffffffffff8082111561167b57600080fd5b818501915085601f83011261168f57600080fd5b8135602061169c8261149d565b6040516116a98282611470565b83815260059390931b85018201928281019150898411156116c957600080fd5b948201945b838610156116ee576116df8661136f565b825294820194908201906116ce565b9650508601359250508082111561170457600080fd5b50611711858286016114c1565b9150509250929050565b600081518084526020808501945080840160005b8381101561174b5781518752958201959082019060010161172f565b509495945050505050565b60208152600061087f602083018461171b565b6000806040838503121561177c57600080fd5b6117858361136f565b91506020830135801515811461179a57600080fd5b809150509250929050565b600080604083850312156117b857600080fd5b6117c18361136f565b91506117cf6020840161136f565b90509250929050565b600080600080600060a086880312156117f057600080fd5b6117f98661136f565b94506118076020870161136f565b93506040860135925060608601359150608086013567ffffffffffffffff81111561183157600080fd5b61164388828901611532565b60006020828403121561184f57600080fd5b61087f8261136f565b600181811c9082168061186c57607f821691505b60208210810361188c57634e487b7160e01b600052602260045260246000fd5b50919050565b6020808252602e908201527f455243313135353a2063616c6c6572206973206e6f7420746f6b656e206f776e60408201526d195c881bdc88185c1c1c9bdd995960921b606082015260800190565b634e487b7160e01b600052603260045260246000fd5b634e487b7160e01b600052601160045260246000fd5b60006001820161191e5761191e6118f6565b5060010190565b60208082526028908201527f455243313135353a2069647320616e6420616d6f756e7473206c656e677468206040820152670dad2e6dac2e8c6d60c31b606082015260800190565b60208082526025908201527f455243313135353a207472616e7366657220746f20746865207a65726f206164604082015264647265737360d81b606082015260800190565b6020808252602a908201527f455243313135353a20696e73756666696369656e742062616c616e636520666f60408201526939103a3930b739b332b960b11b606082015260800190565b808201808211156103a2576103a26118f6565b604081526000611a22604083018561171b565b8281036020840152611a34818561171b565b95945050505050565b6001600160a01b0386811682528516602082015260a060408201819052600090611a699083018661171b565b8281036060840152611a7b818661171b565b90508281036080840152611a8f8185611401565b98975050505050505050565b600060208284031215611aad57600080fd5b815161087f816113b5565b600060033d1115611ad15760046000803e5060005160e01c5b90565b600060443d1015611ae25790565b6040516003193d81016004833e81513d67ffffffffffffffff8160248401118184111715611b1257505050505090565b8285019150815181811115611b2a5750505050505090565b843d8701016020828501011115611b445750505050505090565b611b5360208286010187611470565b509095945050505050565b60208082526028908201527f455243313135353a204552433131353552656365697665722072656a656374656040820152676420746f6b656e7360c01b606082015260800190565b6001600160a01b03868116825285166020820152604081018490526060810183905260a060808201819052600090611be090830184611401565b97965050505050505056fea264697066735822122045afd253cf50e97be41fa4eaec6766d88e296dbeefeb43ea1b2c1770b84cdbd064736f6c63430008110033a26469706673582212207fb29418f942b5339604b25f95270900236915c5ff5780dcce4d641a2920700864736f6c63430008110033",
    "linkReferences": {},
    "deployedLinkReferences": {}
}