{
    "_format": "hh-sol-artifact-1",
    "contractName": "FillionArtist",
    "sourceName": "contracts/FillionArtist.sol",
    "abi": [
        {
            "inputs": [],
            "name": "Fillion__AlreadyAnArtist",
            "type": "error"
        },
        {
            "inputs": [],
            "name": "Fillion__OnlyArtists",
            "type": "error"
        },
        {
            "anonymous": false,
            "inputs": [
                {
                    "indexed": false,
                    "internalType": "uint256",
                    "name": "id",
                    "type": "uint256"
                },
                {
                    "indexed": false,
                    "internalType": "uint256",
                    "name": "dateJoined",
                    "type": "uint256"
                },
                {
                    "indexed": false,
                    "internalType": "address",
                    "name": "artistAddress",
                    "type": "address"
                },
                {
                    "indexed": false,
                    "internalType": "string",
                    "name": "artistDetails",
                    "type": "string"
                }
            ],
            "name": "newArtistJoined",
            "type": "event"
        },
        {
            "inputs": [
                {
                    "internalType": "address",
                    "name": "",
                    "type": "address"
                }
            ],
            "name": "artistByAddress",
            "outputs": [
                {
                    "internalType": "uint256",
                    "name": "id",
                    "type": "uint256"
                },
                {
                    "internalType": "uint256",
                    "name": "dateJoined",
                    "type": "uint256"
                },
                {
                    "internalType": "address",
                    "name": "artistAddress",
                    "type": "address"
                },
                {
                    "internalType": "string",
                    "name": "artistDetails",
                    "type": "string"
                }
            ],
            "stateMutability": "view",
            "type": "function"
        },
        {
            "inputs": [],
            "name": "artistCount",
            "outputs": [
                {
                    "internalType": "uint256",
                    "name": "",
                    "type": "uint256"
                }
            ],
            "stateMutability": "view",
            "type": "function"
        },
        {
            "inputs": [
                {
                    "internalType": "uint256",
                    "name": "",
                    "type": "uint256"
                }
            ],
            "name": "artists",
            "outputs": [
                {
                    "internalType": "uint256",
                    "name": "id",
                    "type": "uint256"
                },
                {
                    "internalType": "uint256",
                    "name": "dateJoined",
                    "type": "uint256"
                },
                {
                    "internalType": "address",
                    "name": "artistAddress",
                    "type": "address"
                },
                {
                    "internalType": "string",
                    "name": "artistDetails",
                    "type": "string"
                }
            ],
            "stateMutability": "view",
            "type": "function"
        },
        {
            "inputs": [],
            "name": "checkIfArtist",
            "outputs": [
                {
                    "internalType": "bool",
                    "name": "",
                    "type": "bool"
                }
            ],
            "stateMutability": "view",
            "type": "function"
        },
        {
            "inputs": [],
            "name": "getAllArtists",
            "outputs": [
                {
                    "components": [
                        {
                            "internalType": "uint256",
                            "name": "id",
                            "type": "uint256"
                        },
                        {
                            "internalType": "uint256",
                            "name": "dateJoined",
                            "type": "uint256"
                        },
                        {
                            "internalType": "address",
                            "name": "artistAddress",
                            "type": "address"
                        },
                        {
                            "internalType": "string",
                            "name": "artistDetails",
                            "type": "string"
                        }
                    ],
                    "internalType": "struct FillionArtist.Artist[]",
                    "name": "",
                    "type": "tuple[]"
                }
            ],
            "stateMutability": "view",
            "type": "function"
        },
        {
            "inputs": [],
            "name": "getCreatorofTheDay",
            "outputs": [
                {
                    "components": [
                        {
                            "internalType": "uint256",
                            "name": "id",
                            "type": "uint256"
                        },
                        {
                            "internalType": "uint256",
                            "name": "dateJoined",
                            "type": "uint256"
                        },
                        {
                            "internalType": "address",
                            "name": "artistAddress",
                            "type": "address"
                        },
                        {
                            "internalType": "string",
                            "name": "artistDetails",
                            "type": "string"
                        }
                    ],
                    "internalType": "struct FillionArtist.Artist",
                    "name": "",
                    "type": "tuple"
                }
            ],
            "stateMutability": "view",
            "type": "function"
        },
        {
            "inputs": [
                {
                    "internalType": "address",
                    "name": "",
                    "type": "address"
                }
            ],
            "name": "isArtist",
            "outputs": [
                {
                    "internalType": "bool",
                    "name": "",
                    "type": "bool"
                }
            ],
            "stateMutability": "view",
            "type": "function"
        },
        {
            "inputs": [
                {
                    "internalType": "string",
                    "name": "_artistDetails",
                    "type": "string"
                }
            ],
            "name": "newArtistSignup",
            "outputs": [],
            "stateMutability": "nonpayable",
            "type": "function"
        },
        {
            "inputs": [
                {
                    "internalType": "string",
                    "name": "_artistDetails",
                    "type": "string"
                },
                {
                    "internalType": "uint256",
                    "name": "_artistid",
                    "type": "uint256"
                }
            ],
            "name": "updateArtistDetails",
            "outputs": [],
            "stateMutability": "nonpayable",
            "type": "function"
        }
    ],
    "bytecode": "0x60806040526000805534801561001457600080fd5b50610bea806100246000396000f3fe608060405234801561001057600080fd5b50600436106100935760003560e01c8063946ce19f11610066578063946ce19f14610120578063be53048214610135578063cd7e10c11461014c578063dcbf58bf1461015f578063f803ace31461017257600080fd5b80635508c697146100985780636b2f65b0146100ad57806374fe2cd8146100e55780638162c17b146100fd575b600080fd5b6100ab6100a636600461085e565b610187565b005b6100d06100bb36600461089b565b60026020526000908152604090205460ff1681565b60405190151581526020015b60405180910390f35b3360009081526002602052604090205460ff166100d0565b61011061010b36600461089b565b61038a565b6040516100dc9493929190610911565b610128610448565b6040516100dc9190610983565b61013e60005481565b6040519081526020016100dc565b61011061015a366004610996565b610584565b6100ab61016d3660046109af565b6105d3565b61017a61069f565b6040516100dc91906109f4565b3360009081526002602052604090205460ff1615156001036101bc5760405163164cc74d60e31b815260040160405180910390fd5b60008151116101ca57600080fd5b6000805460019081018083556040805160808101825291825242602080840191825233848401818152606086018981529188526002909252928620805460ff1916861790556004805495860181559586905283517f8a35acfbc15ff81a39ae7d344fd709f28e8600b4aa8c65c6b64bfe7fe36bd19b9590960294850195865590517f8a35acfbc15ff81a39ae7d344fd709f28e8600b4aa8c65c6b64bfe7fe36bd19c850155517f8a35acfbc15ff81a39ae7d344fd709f28e8600b4aa8c65c6b64bfe7fe36bd19d840180546001600160a01b0319166001600160a01b03909216919091179055519092839290917f8a35acfbc15ff81a39ae7d344fd709f28e8600b4aa8c65c6b64bfe7fe36bd19e909101906102e69082610ade565b50503360009081526003602081815260409283902085518155908501516001820155918401516002830180546001600160a01b0319166001600160a01b039092169190911790556060840151849350908201906103439082610ade565b509050507f084e9726d8621cec5b0cc5189b3ae44b6ad7a59c579f918937e546356fbb844260005442338560405161037e9493929190610911565b60405180910390a15050565b60036020819052600091825260409091208054600182015460028301549383018054929491936001600160a01b03909216926103c590610a56565b80601f01602080910402602001604051908101604052809291908181526020018280546103f190610a56565b801561043e5780601f106104135761010080835404028352916020019161043e565b820191906000526020600020905b81548152906001019060200180831161042157829003601f168201915b5050505050905084565b61047c6040518060800160405280600081526020016000815260200160006001600160a01b03168152602001606081525090565b60046001548154811061049157610491610b9e565b906000526020600020906004020160405180608001604052908160008201548152602001600182015481526020016002820160009054906101000a90046001600160a01b03166001600160a01b03166001600160a01b031681526020016003820180546104fd90610a56565b80601f016020809104026020016040519081016040528092919081815260200182805461052990610a56565b80156105765780601f1061054b57610100808354040283529160200191610576565b820191906000526020600020905b81548152906001019060200180831161055957829003601f168201915b505050505081525050905090565b6004818154811061059457600080fd5b6000918252602090912060049091020180546001820154600283015460038401805493955091936001600160a01b03909116929091906103c590610a56565b3360009081526002602052604081205460ff161515900361060757604051635c20ea7760e01b815260040160405180910390fd5b336001600160a01b03166004828154811061062457610624610b9e565b60009182526020909120600260049092020101546001600160a01b03161461064b57600080fd5b816004828154811061065f5761065f610b9e565b9060005260206000209060040201600301908161067c9190610ade565b503360009081526003602081905260409091200161069a8382610ade565b505050565b60606004805480602002602001604051908101604052809291908181526020016000905b828210156107b257600084815260209081902060408051608081018252600486029092018054835260018101549383019390935260028301546001600160a01b03169082015260038201805491929160608401919061072190610a56565b80601f016020809104026020016040519081016040528092919081815260200182805461074d90610a56565b801561079a5780601f1061076f5761010080835404028352916020019161079a565b820191906000526020600020905b81548152906001019060200180831161077d57829003601f168201915b505050505081525050815260200190600101906106c3565b50505050905090565b634e487b7160e01b600052604160045260246000fd5b600082601f8301126107e257600080fd5b813567ffffffffffffffff808211156107fd576107fd6107bb565b604051601f8301601f19908116603f01168101908282118183101715610825576108256107bb565b8160405283815286602085880101111561083e57600080fd5b836020870160208301376000602085830101528094505050505092915050565b60006020828403121561087057600080fd5b813567ffffffffffffffff81111561088757600080fd5b610893848285016107d1565b949350505050565b6000602082840312156108ad57600080fd5b81356001600160a01b03811681146108c457600080fd5b9392505050565b6000815180845260005b818110156108f1576020818501810151868301820152016108d5565b506000602082860101526020601f19601f83011685010191505092915050565b84815283602082015260018060a01b038316604082015260806060820152600061093e60808301846108cb565b9695505050505050565b805182526020810151602083015260018060a01b036040820151166040830152600060608201516080606085015261089360808501826108cb565b6020815260006108c46020830184610948565b6000602082840312156109a857600080fd5b5035919050565b600080604083850312156109c257600080fd5b823567ffffffffffffffff8111156109d957600080fd5b6109e5858286016107d1565b95602094909401359450505050565b6000602080830181845280855180835260408601915060408160051b870101925083870160005b82811015610a4957603f19888603018452610a37858351610948565b94509285019290850190600101610a1b565b5092979650505050505050565b600181811c90821680610a6a57607f821691505b602082108103610a8a57634e487b7160e01b600052602260045260246000fd5b50919050565b601f82111561069a57600081815260208120601f850160051c81016020861015610ab75750805b601f850160051c820191505b81811015610ad657828155600101610ac3565b505050505050565b815167ffffffffffffffff811115610af857610af86107bb565b610b0c81610b068454610a56565b84610a90565b602080601f831160018114610b415760008415610b295750858301515b600019600386901b1c1916600185901b178555610ad6565b600085815260208120601f198616915b82811015610b7057888601518255948401946001909101908401610b51565b5085821015610b8e5787850151600019600388901b60f8161c191681555b5050505050600190811b01905550565b634e487b7160e01b600052603260045260246000fdfea2646970667358221220512e02751ac5c6ff02e99894abc90b26c5b2862e51afa28b40cccce2109ef01064736f6c63430008110033",
    "linkReferences": {},
    "deployedLinkReferences": {}
}