{
    "_format": "hh-sol-artifact-1",
    "contractName": "FillionMarketplace",
    "sourceName": "contracts/FillionMarketplace.sol",
    "abi": [
        {
            "inputs": [],
            "name": "Fillion__ERC721AlreadyListed",
            "type": "error"
        },
        {
            "inputs": [],
            "name": "Fillion__ERC721ApprovalRequired",
            "type": "error"
        },
        {
            "inputs": [],
            "name": "Fillion__ERC721NotOwner",
            "type": "error"
        },
        {
            "inputs": [],
            "name": "Fillion__ListingNotOpen",
            "type": "error"
        },
        {
            "inputs": [],
            "name": "Fillion__SellerNotOwner",
            "type": "error"
        },
        {
            "inputs": [],
            "name": "Fillion__WrongPrice",
            "type": "error"
        },
        {
            "anonymous": false,
            "inputs": [
                {
                    "indexed": true,
                    "internalType": "uint256",
                    "name": "_tokenId",
                    "type": "uint256"
                },
                {
                    "indexed": true,
                    "internalType": "address",
                    "name": "_nftAddress",
                    "type": "address"
                },
                {
                    "indexed": true,
                    "internalType": "address",
                    "name": "_seller",
                    "type": "address"
                }
            ],
            "name": "ListingCancelled",
            "type": "event"
        },
        {
            "anonymous": false,
            "inputs": [
                {
                    "indexed": false,
                    "internalType": "uint256",
                    "name": "_price",
                    "type": "uint256"
                },
                {
                    "indexed": true,
                    "internalType": "uint256",
                    "name": "_tokenId",
                    "type": "uint256"
                },
                {
                    "indexed": true,
                    "internalType": "address",
                    "name": "_nftAddress",
                    "type": "address"
                },
                {
                    "indexed": true,
                    "internalType": "address",
                    "name": "_seller",
                    "type": "address"
                }
            ],
            "name": "ListingCreated",
            "type": "event"
        },
        {
            "anonymous": false,
            "inputs": [
                {
                    "indexed": false,
                    "internalType": "uint256",
                    "name": "_price",
                    "type": "uint256"
                },
                {
                    "indexed": true,
                    "internalType": "uint256",
                    "name": "_tokenId",
                    "type": "uint256"
                },
                {
                    "indexed": true,
                    "internalType": "address",
                    "name": "_nftAddress",
                    "type": "address"
                },
                {
                    "indexed": true,
                    "internalType": "address",
                    "name": "_seller",
                    "type": "address"
                },
                {
                    "indexed": false,
                    "internalType": "address",
                    "name": "_buyer",
                    "type": "address"
                }
            ],
            "name": "ListingSold",
            "type": "event"
        },
        {
            "anonymous": false,
            "inputs": [
                {
                    "indexed": true,
                    "internalType": "address",
                    "name": "previousOwner",
                    "type": "address"
                },
                {
                    "indexed": true,
                    "internalType": "address",
                    "name": "newOwner",
                    "type": "address"
                }
            ],
            "name": "OwnershipTransferred",
            "type": "event"
        },
        {
            "inputs": [
                {
                    "internalType": "uint256",
                    "name": "listingId",
                    "type": "uint256"
                }
            ],
            "name": "buyListing",
            "outputs": [],
            "stateMutability": "payable",
            "type": "function"
        },
        {
            "inputs": [
                {
                    "internalType": "uint256",
                    "name": "listingId",
                    "type": "uint256"
                }
            ],
            "name": "cancelListing",
            "outputs": [],
            "stateMutability": "nonpayable",
            "type": "function"
        },
        {
            "inputs": [
                {
                    "internalType": "uint256",
                    "name": "_tokenId",
                    "type": "uint256"
                },
                {
                    "internalType": "address",
                    "name": "_nftAddress",
                    "type": "address"
                },
                {
                    "internalType": "uint256",
                    "name": "_price",
                    "type": "uint256"
                }
            ],
            "name": "createListing",
            "outputs": [
                {
                    "internalType": "uint256",
                    "name": "",
                    "type": "uint256"
                }
            ],
            "stateMutability": "nonpayable",
            "type": "function"
        },
        {
            "inputs": [],
            "name": "getAllActiveListings",
            "outputs": [
                {
                    "components": [
                        {
                            "internalType": "uint256",
                            "name": "id",
                            "type": "uint256"
                        },
                        {
                            "internalType": "uint256",
                            "name": "price",
                            "type": "uint256"
                        },
                        {
                            "internalType": "uint256",
                            "name": "tokenId",
                            "type": "uint256"
                        },
                        {
                            "internalType": "address",
                            "name": "nftAddress",
                            "type": "address"
                        },
                        {
                            "internalType": "address",
                            "name": "seller",
                            "type": "address"
                        },
                        {
                            "internalType": "enum FillionMarketplace.State",
                            "name": "state",
                            "type": "uint8"
                        }
                    ],
                    "internalType": "struct FillionMarketplace.Listing[]",
                    "name": "",
                    "type": "tuple[]"
                }
            ],
            "stateMutability": "view",
            "type": "function"
        },
        {
            "inputs": [
                {
                    "internalType": "address",
                    "name": "userAddress",
                    "type": "address"
                }
            ],
            "name": "getListingsByUser",
            "outputs": [
                {
                    "components": [
                        {
                            "internalType": "uint256",
                            "name": "id",
                            "type": "uint256"
                        },
                        {
                            "internalType": "uint256",
                            "name": "price",
                            "type": "uint256"
                        },
                        {
                            "internalType": "uint256",
                            "name": "tokenId",
                            "type": "uint256"
                        },
                        {
                            "internalType": "address",
                            "name": "nftAddress",
                            "type": "address"
                        },
                        {
                            "internalType": "address",
                            "name": "seller",
                            "type": "address"
                        },
                        {
                            "internalType": "enum FillionMarketplace.State",
                            "name": "state",
                            "type": "uint8"
                        }
                    ],
                    "internalType": "struct FillionMarketplace.Listing[]",
                    "name": "",
                    "type": "tuple[]"
                }
            ],
            "stateMutability": "view",
            "type": "function"
        },
        {
            "inputs": [],
            "name": "owner",
            "outputs": [
                {
                    "internalType": "address",
                    "name": "",
                    "type": "address"
                }
            ],
            "stateMutability": "view",
            "type": "function"
        },
        {
            "inputs": [],
            "name": "renounceOwnership",
            "outputs": [],
            "stateMutability": "nonpayable",
            "type": "function"
        },
        {
            "inputs": [
                {
                    "internalType": "address",
                    "name": "newOwner",
                    "type": "address"
                }
            ],
            "name": "transferOwnership",
            "outputs": [],
            "stateMutability": "nonpayable",
            "type": "function"
        }
    ],
    "bytecode": "0x608060405234801561001057600080fd5b5061001a3361001f565b61006f565b600080546001600160a01b038381166001600160a01b0319831681178455604051919092169283917f8be0079c531659141344cd1fd0a4f28419497f9722a3daafe3b4186f6b6457e09190a35050565b6114f28061007e6000396000f3fe60806040526004361061007b5760003560e01c8063701e50841161004e578063701e508414610115578063715018a61461012a5780638da5cb5b1461013f578063f2fde38b1461016757600080fd5b8063305a67a8146100805780634884f459146100a257806365c11bf0146100b557806369df8327146100e8575b600080fd5b34801561008c57600080fd5b506100a061009b366004611299565b610187565b005b6100a06100b0366004611299565b610333565b3480156100c157600080fd5b506100d56100d03660046112c7565b610785565b6040519081526020015b60405180910390f35b3480156100f457600080fd5b506101086101033660046112ff565b610b8a565b6040516100df9190611332565b34801561012157600080fd5b50610108610d22565b34801561013657600080fd5b506100a0610ea2565b34801561014b57600080fd5b506000546040516001600160a01b0390911681526020016100df565b34801561017357600080fd5b506100a06101823660046112ff565b610eb6565b600081815260076020526040808220600381015460029091015491516331a9108f60e11b8152600481018390526001600160a01b0390911692908390636352211e90602401602060405180830381865afa1580156101e9573d6000803e3d6000fd5b505050506040513d601f19601f8201168201806040525081019061020d91906113d9565b9050336001600160a01b038216146102385760405163f419086160e01b815260040160405180910390fd5b6002600085815260076020526040902060040154600160a01b900460ff1660028111156102675761026761131c565b1461028557604051639bf92e7f60e01b815260040160405180910390fd5b6000848152600760205260409020600401805460ff60a01b191690556102aa84610f34565b60008481526007602081815260408084206003810180546001600160a01b039081168752600685528387206002840180548952908652848820805460ff191690558b88529590945260049091015490549354915190831694939092169290917f6cf8b4e3257a9e5cadb99e5e7422bd64237d03982ae538bd0ea7b2b45c92c03c9190a450505050565b6000818152600760209081526040808320815160c081018352815481526001820154938101939093526002808201549284019290925260038101546001600160a01b03908116606085015260048201549081166080850152909160a0840191600160a01b900460ff16908111156103ac576103ac61131c565b60028111156103bd576103bd61131c565b905250905060028160a0015160028111156103da576103da61131c565b146103f857604051639bf92e7f60e01b815260040160405180910390fd5b80608001516001600160a01b031681606001516001600160a01b0316636352211e83604001516040518263ffffffff1660e01b815260040161043c91815260200190565b602060405180830381865afa158015610459573d6000803e3d6000fd5b505050506040513d601f19601f8201168201806040525081019061047d91906113d9565b6001600160a01b0316146104a457604051630d4f202560e31b815260040160405180910390fd5b806020015134146104c85760405163bcf8adeb60e01b815260040160405180910390fd5b600160a082018181526060830180516001600160a01b03908116600090815260066020908152604080832081890180518552908352818420805460ff191690558984526007835292208751815590870151958101959095555160028086019190915591516003850180549183166001600160a01b031992831617905560808601516004860180549190931691811682178355935186959490936001600160a81b031990911690911790600160a01b9084908111156105885761058861131c565b021790555090505061059982610f34565b600060646105a834600161140c565b6105b29190611423565b9050600060646105c334606361140c565b6105cd9190611423565b905060006105d961100a565b6001600160a01b03168360405160006040518083038185875af1925050503d8060008114610623576040519150601f19603f3d011682016040523d82523d6000602084013e610628565b606091505b50509050600084608001516001600160a01b03168360405160006040518083038185875af1925050503d806000811461067d576040519150601f19603f3d011682016040523d82523d6000602084013e610682565b606091505b505090508180156106905750805b1561007b57606085015160808601516040808801519051632142170760e11b81526001600160a01b03928316600482015233602482015260448101919091529116906342842e0e90606401600060405180830381600087803b1580156106f557600080fd5b505af1158015610709573d6000803e3d6000fd5b5050505084608001516001600160a01b031685606001516001600160a01b031686604001517fc1a2b12422cb3f8b18005f8e1e70c7f9e8acfc0503e08ee6829a887e31d646678860200151336040516107759291909182526001600160a01b0316602082015260400190565b60405180910390a4505050505050565b600082846000826001600160a01b0316636352211e836040518263ffffffff1660e01b81526004016107b991815260200190565b602060405180830381865afa1580156107d6573d6000803e3d6000fd5b505050506040513d601f19601f820116820180604052508101906107fa91906113d9565b9050336001600160a01b038216146108255760405163f419086160e01b815260040160405180910390fd5b60405163e985e9c560e01b815233600482015230602482015286906001600160a01b0382169063e985e9c590604401602060405180830381865afa158015610871573d6000803e3d6000fd5b505050506040513d601f19601f820116820180604052508101906108959190611445565b15156000036108b757604051632dd6fc8d60e11b815260040160405180910390fd5b6001600160a01b03871660009081526006602090815260408083208b84529091529020548790899060ff1615156001036109045760405163765a4df160e11b815260040160405180910390fd5b610912600180546001019055565b60006040518060c0016040528061092860015490565b8152602081018b9052604081018d90526001600160a01b038c16606082015233608082015260a001600281525090506001600660008c6001600160a01b03166001600160a01b0316815260200190815260200160002060008d815260200190815260200160002060006101000a81548160ff02191690831515021790555080600560008d815260200190815260200160002060008201518160000155602082015181600101556040820151816002015560608201518160030160006101000a8154816001600160a01b0302191690836001600160a01b0316021790555060808201518160040160006101000a8154816001600160a01b0302191690836001600160a01b0316021790555060a08201518160040160146101000a81548160ff02191690836002811115610a5c57610a5c61131c565b0217905550508151600090815260076020908152604091829020845181559084015160018201559083015160028083019190915560608401516003830180546001600160a01b03199081166001600160a01b0393841617909155608086015160048501805492831691909316908117835560a0870151879650936001600160a81b03199092161790600160a01b908490811115610afb57610afb61131c565b0217905550508151336000908152600460205260409020610b1d925090611025565b508051610b2c90600290611025565b50336001600160a01b03168a6001600160a01b03168c7f95f29aad5085555149349bf07413872facc3d99d7ab99da330821b6e3ecc37158c604051610b7391815260200190565b60405180910390a4519a9950505050505050505050565b6001600160a01b038116600090815260046020526040812060609190610baf90611038565b805190915060008167ffffffffffffffff811115610bcf57610bcf611467565b604051908082528060200260200182016040528015610c3657816020015b610c236040805160c08101825260008082526020820181905291810182905260608101829052608081018290529060a082015290565b815260200190600190039081610bed5790505b50905060005b82811015610d195760076000858381518110610c5a57610c5a61147d565b6020908102919091018101518252818101929092526040908101600020815160c081018352815481526001820154938101939093526002808201549284019290925260038101546001600160a01b03908116606085015260048201549081166080850152909160a0840191600160a01b900460ff1690811115610cdf57610cdf61131c565b6002811115610cf057610cf061131c565b81525050828281518110610d0657610d0661147d565b6020908102919091010152600101610c3c565b50949350505050565b60606000610d306002611038565b805190915060008167ffffffffffffffff811115610d5057610d50611467565b604051908082528060200260200182016040528015610db757816020015b610da46040805160c08101825260008082526020820181905291810182905260608101829052608081018290529060a082015290565b815260200190600190039081610d6e5790505b50905060005b82811015610e9a5760076000858381518110610ddb57610ddb61147d565b6020908102919091018101518252818101929092526040908101600020815160c081018352815481526001820154938101939093526002808201549284019290925260038101546001600160a01b03908116606085015260048201549081166080850152909160a0840191600160a01b900460ff1690811115610e6057610e6061131c565b6002811115610e7157610e7161131c565b81525050828281518110610e8757610e8761147d565b6020908102919091010152600101610dbd565b509392505050565b610eaa611045565b610eb4600061109f565b565b610ebe611045565b6001600160a01b038116610f285760405162461bcd60e51b815260206004820152602660248201527f4f776e61626c653a206e6577206f776e657220697320746865207a65726f206160448201526564647265737360d01b60648201526084015b60405180910390fd5b610f318161109f565b50565b336000908152600460205260409020610f4d90826110ef565b506000818152600760209081526040808320600280820180548652600590945291909320835481556001808501549082015591548282015560038084015490830180546001600160a01b03199081166001600160a01b03938416179091556004808601805491860180549384169290941691821784555460ff600160a01b9182900416946001600160a81b0319909316909117918490811115610ff257610ff261131c565b0217905550611006915060029050826110ef565b5050565b60008061101f6000546001600160a01b031690565b92915050565b600061103183836110fb565b9392505050565b606060006110318361114a565b6000546001600160a01b03163314610eb45760405162461bcd60e51b815260206004820181905260248201527f4f776e61626c653a2063616c6c6572206973206e6f7420746865206f776e65726044820152606401610f1f565b600080546001600160a01b038381166001600160a01b0319831681178455604051919092169283917f8be0079c531659141344cd1fd0a4f28419497f9722a3daafe3b4186f6b6457e09190a35050565b600061103183836111a6565b60008181526001830160205260408120546111425750815460018181018455600084815260208082209093018490558454848252828601909352604090209190915561101f565b50600061101f565b60608160000180548060200260200160405190810160405280929190818152602001828054801561119a57602002820191906000526020600020905b815481526020019060010190808311611186575b50505050509050919050565b6000818152600183016020526040812054801561128f5760006111ca600183611493565b85549091506000906111de90600190611493565b90508181146112435760008660000182815481106111fe576111fe61147d565b90600052602060002001549050808760000184815481106112215761122161147d565b6000918252602080832090910192909255918252600188019052604090208390555b8554869080611254576112546114a6565b60019003818190600052602060002001600090559055856001016000868152602001908152602001600020600090556001935050505061101f565b600091505061101f565b6000602082840312156112ab57600080fd5b5035919050565b6001600160a01b0381168114610f3157600080fd5b6000806000606084860312156112dc57600080fd5b8335925060208401356112ee816112b2565b929592945050506040919091013590565b60006020828403121561131157600080fd5b8135611031816112b2565b634e487b7160e01b600052602160045260246000fd5b60208082528251828201819052600091906040908185019086840185805b838110156113cb57825180518652878101518887015286810151878701526060808201516001600160a01b03908116918801919091526080808301519091169087015260a09081015190600382106113b657634e487b7160e01b84526021600452602484fd5b86015260c09094019391860191600101611350565b509298975050505050505050565b6000602082840312156113eb57600080fd5b8151611031816112b2565b634e487b7160e01b600052601160045260246000fd5b808202811582820484141761101f5761101f6113f6565b60008261144057634e487b7160e01b600052601260045260246000fd5b500490565b60006020828403121561145757600080fd5b8151801515811461103157600080fd5b634e487b7160e01b600052604160045260246000fd5b634e487b7160e01b600052603260045260246000fd5b8181038181111561101f5761101f6113f6565b634e487b7160e01b600052603160045260246000fdfea2646970667358221220e0a889c91847dee3d831cece33969e6bb2d5dc756625eb16b6b5d883d32acf2964736f6c63430008110033",
    "linkReferences": {},
    "deployedLinkReferences": {}
}